{
  "contractName": "Lottery",
  "abi": [
    {
      "inputs": [
        {
          "internalType": "uint256",
          "name": "_prizeValue",
          "type": "uint256"
        },
        {
          "internalType": "address",
          "name": "_manager",
          "type": "address"
        },
        {
          "internalType": "address",
          "name": "_tokenBUSD",
          "type": "address"
        }
      ],
      "stateMutability": "nonpayable",
      "type": "constructor"
    },
    {
      "anonymous": false,
      "inputs": [
        {
          "indexed": false,
          "internalType": "address",
          "name": "playerAddress",
          "type": "address"
        }
      ],
      "name": "PlayerParticipated",
      "type": "event"
    },
    {
      "inputs": [
        {
          "internalType": "uint256",
          "name": "_amount",
          "type": "uint256"
        },
        {
          "internalType": "address",
          "name": "_particpant",
          "type": "address"
        }
      ],
      "name": "participate",
      "outputs": [],
      "stateMutability": "nonpayable",
      "type": "function"
    },
    {
      "inputs": [],
      "name": "declareWinner",
      "outputs": [
        {
          "internalType": "address",
          "name": "",
          "type": "address"
        }
      ],
      "stateMutability": "nonpayable",
      "type": "function"
    },
    {
      "inputs": [],
      "name": "getPrizeValue",
      "outputs": [
        {
          "internalType": "uint256",
          "name": "",
          "type": "uint256"
        }
      ],
      "stateMutability": "view",
      "type": "function"
    }
  ],
  "bytecode": "0x60806040523480156200001157600080fd5b5060405162000bba38038062000bba833981810160405281019062000037919062000152565b8260008190555062000060670de0b6b3a7640000846200010c60201b620003ae1790919060201c565b60028190555081600160006101000a81548173ffffffffffffffffffffffffffffffffffffffff021916908373ffffffffffffffffffffffffffffffffffffffff1602179055506001600460006101000a81548160ff02191690831515021790555080600460016101000a81548173ffffffffffffffffffffffffffffffffffffffff021916908373ffffffffffffffffffffffffffffffffffffffff16021790555050505062000281565b600081836200011c9190620001a8565b905092915050565b60008151905062000135816200024d565b92915050565b6000815190506200014c8162000267565b92915050565b6000806000606084860312156200016857600080fd5b600062000178868287016200013b565b93505060206200018b8682870162000124565b92505060406200019e8682870162000124565b9150509250925092565b6000620001b58262000214565b9150620001c28362000214565b925082620001d557620001d46200021e565b5b828204905092915050565b6000620001ed82620001f4565b9050919050565b600073ffffffffffffffffffffffffffffffffffffffff82169050919050565b6000819050919050565b7f4e487b7100000000000000000000000000000000000000000000000000000000600052601260045260246000fd5b6200025881620001e0565b81146200026457600080fd5b50565b620002728162000214565b81146200027e57600080fd5b50565b61092980620002916000396000f3fe608060405234801561001057600080fd5b50600436106100415760003560e01c806313b186401461004657806314034bd214610062578063b8760e6b14610080575b600080fd5b610060600480360381019061005b9190610451565b61009e565b005b61006a610285565b6040516100779190610625565b60405180910390f35b6100886103a5565b60405161009591906106c0565b60405180910390f35b600060025414156100e4576040517f08c379a00000000000000000000000000000000000000000000000000000000081526004016100db90610640565b60405180910390fd5b600460009054906101000a900460ff16610133576040517f08c379a000000000000000000000000000000000000000000000000000000000815260040161012a90610660565b60405180910390fd5b6000610150670de0b6b3a7640000846103ae90919063ffffffff16565b9050806002541015610197576040517f08c379a000000000000000000000000000000000000000000000000000000000815260040161018e90610680565b60405180910390fd5b60005b81811015610214578260056000600354846101b591906106ec565b815260200190815260200160002060006101000a81548173ffffffffffffffffffffffffffffffffffffffff021916908373ffffffffffffffffffffffffffffffffffffffff160217905550808061020c906107e3565b91505061019a565b50806003600082825461022791906106ec565b92505081905550610243816002546103c490919063ffffffff16565b6002819055507f609ccaad0d5a048d24b2ea393937b393e3ad528ec64eca22004023379ea26f42826040516102789190610625565b60405180910390a1505050565b6000600160009054906101000a900473ffffffffffffffffffffffffffffffffffffffff1673ffffffffffffffffffffffffffffffffffffffff163373ffffffffffffffffffffffffffffffffffffffff16146102e157600080fd5b600460009054906101000a900460ff16610330576040517f08c379a0000000000000000000000000000000000000000000000000000000008152600401610327906106a0565b60405180910390fd5b6000600460006101000a81548160ff021916908315150217905550600061036960005461035b6103da565b61041190919063ffffffff16565b90506005600082815260200190815260200160002060009054906101000a900473ffffffffffffffffffffffffffffffffffffffff1691505090565b60008054905090565b600081836103bc9190610742565b905092915050565b600081836103d29190610773565b905092915050565b600044426000546040516020016103f3939291906105e8565b6040516020818303038152906040528051906020012060001c905090565b6000818361041f9190610836565b905092915050565b600081359050610436816108c5565b92915050565b60008135905061044b816108dc565b92915050565b6000806040838503121561046457600080fd5b60006104728582860161043c565b925050602061048385828601610427565b9150509250929050565b610496816107a7565b82525050565b60006104a9600f836106db565b91507f636f6e746578742069732066756c6c00000000000000000000000000000000006000830152602082019050919050565b60006104e9601d836106db565b91507f636f6e74657874206973206e6f742061637469766520616e796d6f72650000006000830152602082019050919050565b60006105296032836106db565b91507f656e74726565206665652073686f756c6420626520736d616c6c65722074686160008301527f6e20656e747269657320726571756972656400000000000000000000000000006020830152604082019050919050565b600061058f601d836106db565b91507f436f6e74657874206973206e6f742061637469766520616e796d6f72650000006000830152602082019050919050565b6105cb816107d9565b82525050565b6105e26105dd826107d9565b61082c565b82525050565b60006105f482866105d1565b60208201915061060482856105d1565b60208201915061061482846105d1565b602082019150819050949350505050565b600060208201905061063a600083018461048d565b92915050565b600060208201905081810360008301526106598161049c565b9050919050565b60006020820190508181036000830152610679816104dc565b9050919050565b600060208201905081810360008301526106998161051c565b9050919050565b600060208201905081810360008301526106b981610582565b9050919050565b60006020820190506106d560008301846105c2565b92915050565b600082825260208201905092915050565b60006106f7826107d9565b9150610702836107d9565b9250827fffffffffffffffffffffffffffffffffffffffffffffffffffffffffffffffff0382111561073757610736610867565b5b828201905092915050565b600061074d826107d9565b9150610758836107d9565b92508261076857610767610896565b5b828204905092915050565b600061077e826107d9565b9150610789836107d9565b92508282101561079c5761079b610867565b5b828203905092915050565b60006107b2826107b9565b9050919050565b600073ffffffffffffffffffffffffffffffffffffffff82169050919050565b6000819050919050565b60006107ee826107d9565b91507fffffffffffffffffffffffffffffffffffffffffffffffffffffffffffffffff82141561082157610820610867565b5b600182019050919050565b6000819050919050565b6000610841826107d9565b915061084c836107d9565b92508261085c5761085b610896565b5b828206905092915050565b7f4e487b7100000000000000000000000000000000000000000000000000000000600052601160045260246000fd5b7f4e487b7100000000000000000000000000000000000000000000000000000000600052601260045260246000fd5b6108ce816107a7565b81146108d957600080fd5b50565b6108e5816107d9565b81146108f057600080fd5b5056fea2646970667358221220c447a4eae3adc584a6077962472d29554c794672e44690e7fd38c0fe15cf540d64736f6c63430008000033",
  "immutableReferences": {},
  "source": "// SPDX-License-Identifier: MIT\r\npragma solidity ^0.8.0;\r\n\r\nimport \"@openzeppelin/contracts/utils/math/SafeMath.sol\";\r\nimport \"@openzeppelin/contracts/token/ERC20/IERC20.sol\";\r\n\r\ncontract Lottery {\r\n    using SafeMath for uint256;\r\n\r\n    uint256 private prizeValue;\r\n    address private manager;\r\n    uint256 private entriesRequired;\r\n    uint256 private currentTicketId;\r\n    bool private isActive;\r\n    address private tokenBUSD;\r\n    mapping(uint256 => address) allParticipants;\r\n\r\n    constructor(uint256 _prizeValue, address _manager, address _tokenBUSD) {\r\n        prizeValue = _prizeValue;\r\n        entriesRequired = _prizeValue.div(10**18);\r\n        manager = _manager;\r\n        isActive = true;\r\n        tokenBUSD = _tokenBUSD;\r\n    }\r\n\r\n    function participate(uint256 _amount, address _particpant) public {\r\n        require(entriesRequired != 0, \"context is full\");\r\n        require(isActive, \"context is not active anymore\");\r\n\r\n        uint256 _tickets = _amount.div(10**18);\r\n        require(\r\n            entriesRequired >= _tickets,\r\n            \"entree fee should be smaller than entries required\"\r\n        );\r\n        for (uint256 i = 0; i < _tickets; i++) {\r\n            allParticipants[i + currentTicketId] = _particpant;\r\n        }\r\n        currentTicketId += _tickets;\r\n        entriesRequired = entriesRequired.sub(_tickets);\r\n        emit PlayerParticipated(_particpant);\r\n    }\r\n\r\n    function declareWinner() public restricted returns(address){\r\n        require(isActive,\"Context is not active anymore\");\r\n        isActive = false;\r\n        uint256 winnerTicketNo = random().mod(prizeValue);\r\n        return allParticipants[winnerTicketNo];\r\n    }\r\n\r\n    function random() private view returns (uint256) {\r\n        return\r\n            uint256(\r\n                keccak256(\r\n                    abi.encodePacked(\r\n                        block.difficulty,\r\n                        block.timestamp,\r\n                        prizeValue\r\n                    )\r\n                )\r\n            );\r\n    }\r\n\r\n    function getPrizeValue() public view returns(uint256) {\r\n        return prizeValue;\r\n    }\r\n    modifier restricted() {\r\n        require(msg.sender == manager);\r\n        _;\r\n    }\r\n    event PlayerParticipated(\r\n        address playerAddress\r\n    );\r\n}\r\n",
  "sourcePath": "C:\\Users\\sudip\\Desktop\\RealProjects\\LPLottery\\contracts\\Lottery.sol",
  "compiler": {
    "name": "solc",
    "version": "0.8.0+commit.c7dfd78e.Emscripten.clang"
  },
  "schemaVersion": "3.3.4",
  "updatedAt": "2021-07-11T15:51:38.513Z",
  "devdoc": {
    "kind": "dev",
    "methods": {},
    "version": 1
  },
  "userdoc": {
    "kind": "user",
    "methods": {},
    "version": 1
  }
}