{
  "contractName": "Lottery",
  "abi": [
    {
      "inputs": [
        {
          "internalType": "uint256",
          "name": "_prizeValue",
          "type": "uint256"
        },
        {
          "internalType": "address",
          "name": "_manager",
          "type": "address"
        },
        {
          "internalType": "address",
          "name": "_tokenBUSD",
          "type": "address"
        }
      ],
      "stateMutability": "nonpayable",
      "type": "constructor"
    },
    {
      "anonymous": false,
      "inputs": [
        {
          "indexed": false,
          "internalType": "address",
          "name": "playerAddress",
          "type": "address"
        }
      ],
      "name": "PlayerParticipated",
      "type": "event"
    },
    {
      "inputs": [
        {
          "internalType": "uint256",
          "name": "_amount",
          "type": "uint256"
        },
        {
          "internalType": "address",
          "name": "_particpant",
          "type": "address"
        }
      ],
      "name": "participate",
      "outputs": [],
      "stateMutability": "nonpayable",
      "type": "function"
    },
    {
      "inputs": [],
      "name": "declareWinner",
      "outputs": [
        {
          "internalType": "address",
          "name": "",
          "type": "address"
        }
      ],
      "stateMutability": "nonpayable",
      "type": "function"
    },
    {
      "inputs": [],
      "name": "getWinner",
      "outputs": [
        {
          "internalType": "address",
          "name": "",
          "type": "address"
        }
      ],
      "stateMutability": "view",
      "type": "function"
    },
    {
      "inputs": [],
      "name": "getPrizeValue",
      "outputs": [
        {
          "internalType": "uint256",
          "name": "",
          "type": "uint256"
        }
      ],
      "stateMutability": "view",
      "type": "function"
    }
  ],
  "bytecode": "0x60806040523480156200001157600080fd5b5060405162000ba938038062000ba9833981810160405281019062000037919062000152565b8260008190555062000060670de0b6b3a7640000846200010c60201b620003f31790919060201c565b60028190555081600160006101000a81548173ffffffffffffffffffffffffffffffffffffffff021916908373ffffffffffffffffffffffffffffffffffffffff1602179055506001600460006101000a81548160ff02191690831515021790555080600460016101000a81548173ffffffffffffffffffffffffffffffffffffffff021916908373ffffffffffffffffffffffffffffffffffffffff16021790555050505062000281565b600081836200011c9190620001a8565b905092915050565b60008151905062000135816200024d565b92915050565b6000815190506200014c8162000267565b92915050565b6000806000606084860312156200016857600080fd5b600062000178868287016200013b565b93505060206200018b8682870162000124565b92505060406200019e8682870162000124565b9150509250925092565b6000620001b58262000214565b9150620001c28362000214565b925082620001d557620001d46200021e565b5b828204905092915050565b6000620001ed82620001f4565b9050919050565b600073ffffffffffffffffffffffffffffffffffffffff82169050919050565b6000819050919050565b7f4e487b7100000000000000000000000000000000000000000000000000000000600052601260045260246000fd5b6200025881620001e0565b81146200026457600080fd5b50565b620002728162000214565b81146200027e57600080fd5b50565b61091880620002916000396000f3fe608060405234801561001057600080fd5b506004361061004c5760003560e01c806313b186401461005157806314034bd21461006d5780638e7ea5b21461008b578063b8760e6b146100a9575b600080fd5b61006b60048036038101906100669190610496565b6100c7565b005b6100756102a2565b604051610082919061066a565b60405180910390f35b610093610375565b6040516100a0919061066a565b60405180910390f35b6100b16103ea565b6040516100be9190610705565b60405180910390f35b6000600254141561010d576040517f08c379a000000000000000000000000000000000000000000000000000000000815260040161010490610685565b60405180910390fd5b600460009054906101000a900460ff1661015c576040517f08c379a0000000000000000000000000000000000000000000000000000000008152600401610153906106a5565b60405180910390fd5b6000610179670de0b6b3a7640000846103f390919063ffffffff16565b90508060025410156101c0576040517f08c379a00000000000000000000000000000000000000000000000000000000081526004016101b7906106c5565b60405180910390fd5b60005b8181101561024a578260056000600354815260200190815260200160002060006101000a81548173ffffffffffffffffffffffffffffffffffffffff021916908373ffffffffffffffffffffffffffffffffffffffff16021790555060036000815480929190610232906107d2565b91905055508080610242906107d2565b9150506101c3565b506102608160025461040990919063ffffffff16565b6002819055507f609ccaad0d5a048d24b2ea393937b393e3ad528ec64eca22004023379ea26f4282604051610295919061066a565b60405180910390a1505050565b6000600160009054906101000a900473ffffffffffffffffffffffffffffffffffffffff1673ffffffffffffffffffffffffffffffffffffffff163373ffffffffffffffffffffffffffffffffffffffff16146102fe57600080fd5b600460009054906101000a900460ff1661034d576040517f08c379a0000000000000000000000000000000000000000000000000000000008152600401610344906106e5565b60405180910390fd5b6000600460006101000a81548160ff021916908315150217905550610370610375565b905090565b6000806103ae610398670de0b6b3a76400006000546103f390919063ffffffff16565b6103a061041f565b61045690919063ffffffff16565b90506005600082815260200190815260200160002060009054906101000a900473ffffffffffffffffffffffffffffffffffffffff1691505090565b60008054905090565b600081836104019190610731565b905092915050565b600081836104179190610762565b905092915050565b600044426000546040516020016104389392919061062d565b6040516020818303038152906040528051906020012060001c905090565b600081836104649190610825565b905092915050565b60008135905061047b816108b4565b92915050565b600081359050610490816108cb565b92915050565b600080604083850312156104a957600080fd5b60006104b785828601610481565b92505060206104c88582860161046c565b9150509250929050565b6104db81610796565b82525050565b60006104ee600f83610720565b91507f636f6e746578742069732066756c6c00000000000000000000000000000000006000830152602082019050919050565b600061052e601d83610720565b91507f636f6e74657874206973206e6f742061637469766520616e796d6f72650000006000830152602082019050919050565b600061056e603283610720565b91507f656e74726565206665652073686f756c6420626520736d616c6c65722074686160008301527f6e20656e747269657320726571756972656400000000000000000000000000006020830152604082019050919050565b60006105d4601d83610720565b91507f436f6e74657874206973206e6f742061637469766520616e796d6f72650000006000830152602082019050919050565b610610816107c8565b82525050565b610627610622826107c8565b61081b565b82525050565b60006106398286610616565b6020820191506106498285610616565b6020820191506106598284610616565b602082019150819050949350505050565b600060208201905061067f60008301846104d2565b92915050565b6000602082019050818103600083015261069e816104e1565b9050919050565b600060208201905081810360008301526106be81610521565b9050919050565b600060208201905081810360008301526106de81610561565b9050919050565b600060208201905081810360008301526106fe816105c7565b9050919050565b600060208201905061071a6000830184610607565b92915050565b600082825260208201905092915050565b600061073c826107c8565b9150610747836107c8565b92508261075757610756610885565b5b828204905092915050565b600061076d826107c8565b9150610778836107c8565b92508282101561078b5761078a610856565b5b828203905092915050565b60006107a1826107a8565b9050919050565b600073ffffffffffffffffffffffffffffffffffffffff82169050919050565b6000819050919050565b60006107dd826107c8565b91507fffffffffffffffffffffffffffffffffffffffffffffffffffffffffffffffff8214156108105761080f610856565b5b600182019050919050565b6000819050919050565b6000610830826107c8565b915061083b836107c8565b92508261084b5761084a610885565b5b828206905092915050565b7f4e487b7100000000000000000000000000000000000000000000000000000000600052601160045260246000fd5b7f4e487b7100000000000000000000000000000000000000000000000000000000600052601260045260246000fd5b6108bd81610796565b81146108c857600080fd5b50565b6108d4816107c8565b81146108df57600080fd5b5056fea2646970667358221220781749b566aacfbe91418f67df1cbc09a9a9dbd6e05c8b66f2e6264ba54e82cb64736f6c63430008000033",
  "immutableReferences": {},
  "source": "// SPDX-License-Identifier: MIT\r\npragma solidity ^0.8.0;\r\n\r\nimport \"@openzeppelin/contracts/utils/math/SafeMath.sol\";\r\nimport \"@openzeppelin/contracts/token/ERC20/IERC20.sol\";\r\n\r\ncontract Lottery {\r\n    using SafeMath for uint256;\r\n\r\n    uint256 private prizeValue;\r\n    address private manager;\r\n    uint256 private entriesRequired;\r\n    uint256 private currentTicketId;\r\n    bool private isActive;\r\n    address private tokenBUSD;\r\n    mapping(uint256 => address) allParticipants;\r\n\r\n    constructor(uint256 _prizeValue, address _manager, address _tokenBUSD) {\r\n        prizeValue = _prizeValue;\r\n        entriesRequired = _prizeValue.div(10**18);\r\n        manager = _manager;\r\n        isActive = true;\r\n        tokenBUSD = _tokenBUSD;\r\n    }\r\n\r\n    function participate(uint256 _amount, address _particpant) public {\r\n        require(entriesRequired != 0, \"context is full\");\r\n        require(isActive, \"context is not active anymore\");\r\n\r\n        uint256 _tickets = _amount.div(10**18);\r\n        require(\r\n            entriesRequired >= _tickets,\r\n            \"entree fee should be smaller than entries required\"\r\n        );\r\n        for (uint256 i = 0; i < _tickets; i++) {\r\n            allParticipants[currentTicketId] = _particpant;\r\n            currentTicketId++;\r\n        }\r\n        entriesRequired = entriesRequired.sub(_tickets);\r\n        emit PlayerParticipated(_particpant);\r\n    }\r\n\r\n    function declareWinner() public restricted returns(address){\r\n        require(isActive,\"Context is not active anymore\");\r\n        isActive = false;\r\n        return getWinner();\r\n    }\r\n\r\n    function getWinner() public view returns(address) {\r\n        uint256 winnerTicketNo = random().mod(prizeValue.div(10**18));\r\n        return allParticipants[winnerTicketNo];\r\n    }\r\n\r\n    function random() private view returns (uint256) {\r\n        return\r\n            uint256(\r\n                keccak256(\r\n                    abi.encodePacked(\r\n                        block.difficulty,\r\n                        block.timestamp,\r\n                        prizeValue\r\n                    )\r\n                )\r\n            );\r\n    }\r\n\r\n    function getPrizeValue() public view returns(uint256) {\r\n        return prizeValue;\r\n    }\r\n    modifier restricted() {\r\n        require(msg.sender == manager);\r\n        _;\r\n    }\r\n    event PlayerParticipated(\r\n        address playerAddress\r\n    );\r\n}\r\n",
  "sourcePath": "C:\\Users\\sudip\\Desktop\\RealProjects\\LPLottery\\contracts\\Lottery.sol",
  "compiler": {
    "name": "solc",
    "version": "0.8.0+commit.c7dfd78e.Emscripten.clang"
  },
  "schemaVersion": "3.3.4",
  "updatedAt": "2021-07-12T05:27:48.699Z",
  "devdoc": {
    "kind": "dev",
    "methods": {},
    "version": 1
  },
  "userdoc": {
    "kind": "user",
    "methods": {},
    "version": 1
  }
}