{
  "contractName": "Lottery",
  "abi": [
    {
      "inputs": [
        {
          "internalType": "uint256",
          "name": "_prizeValue",
          "type": "uint256"
        },
        {
          "internalType": "address",
          "name": "_manager",
          "type": "address"
        },
        {
          "internalType": "address",
          "name": "_tokenBUSD",
          "type": "address"
        }
      ],
      "stateMutability": "nonpayable",
      "type": "constructor"
    },
    {
      "anonymous": false,
      "inputs": [
        {
          "indexed": false,
          "internalType": "address",
          "name": "playerAddress",
          "type": "address"
        }
      ],
      "name": "PlayerParticipated",
      "type": "event"
    },
    {
      "inputs": [
        {
          "internalType": "uint256",
          "name": "_amount",
          "type": "uint256"
        },
        {
          "internalType": "address",
          "name": "_particpant",
          "type": "address"
        }
      ],
      "name": "participate",
      "outputs": [],
      "stateMutability": "nonpayable",
      "type": "function"
    },
    {
      "inputs": [],
      "name": "declareWinner",
      "outputs": [
        {
          "internalType": "address",
          "name": "",
          "type": "address"
        }
      ],
      "stateMutability": "nonpayable",
      "type": "function"
    },
    {
      "inputs": [],
      "name": "getPrizeValue",
      "outputs": [
        {
          "internalType": "uint256",
          "name": "",
          "type": "uint256"
        }
      ],
      "stateMutability": "view",
      "type": "function"
    }
  ],
  "bytecode": "0x608060405234801561001057600080fd5b50604051610aa8380380610aa88339818101604052810190610032919061010f565b826000819055508260028190555081600160006101000a81548173ffffffffffffffffffffffffffffffffffffffff021916908373ffffffffffffffffffffffffffffffffffffffff1602179055506001600460006101000a81548160ff02191690831515021790555080600460016101000a81548173ffffffffffffffffffffffffffffffffffffffff021916908373ffffffffffffffffffffffffffffffffffffffff1602179055505050506101c8565b6000815190506100f48161019a565b92915050565b600081519050610109816101b1565b92915050565b60008060006060848603121561012457600080fd5b6000610132868287016100fa565b9350506020610143868287016100e5565b9250506040610154868287016100e5565b9150509250925092565b600061016982610170565b9050919050565b600073ffffffffffffffffffffffffffffffffffffffff82169050919050565b6000819050919050565b6101a38161015e565b81146101ae57600080fd5b50565b6101ba81610190565b81146101c557600080fd5b50565b6108d1806101d76000396000f3fe608060405234801561001057600080fd5b50600436106100415760003560e01c806313b186401461004657806314034bd214610062578063b8760e6b14610080575b600080fd5b610060600480360381019061005b919061044f565b61009e565b005b61006a610283565b6040516100779190610623565b60405180910390f35b6100886103a3565b60405161009591906106be565b60405180910390f35b600060025414156100e4576040517f08c379a00000000000000000000000000000000000000000000000000000000081526004016100db9061063e565b60405180910390fd5b60011515600460009054906101000a900460ff1615151461013a576040517f08c379a00000000000000000000000000000000000000000000000000000000081526004016101319061065e565b60405180910390fd5b6000610157670de0b6b3a7640000846103ac90919063ffffffff16565b905080600254101561019e576040517f08c379a00000000000000000000000000000000000000000000000000000000081526004016101959061067e565b60405180910390fd5b600060035490505b8181101561022b57826005600083815260200190815260200160002060006101000a81548173ffffffffffffffffffffffffffffffffffffffff021916908373ffffffffffffffffffffffffffffffffffffffff160217905550600360008154809291906102139061078b565b919050555080806102239061078b565b9150506101a6565b50610241816002546103c290919063ffffffff16565b6002819055507f609ccaad0d5a048d24b2ea393937b393e3ad528ec64eca22004023379ea26f42826040516102769190610623565b60405180910390a1505050565b6000600160009054906101000a900473ffffffffffffffffffffffffffffffffffffffff1673ffffffffffffffffffffffffffffffffffffffff163373ffffffffffffffffffffffffffffffffffffffff16146102df57600080fd5b600460009054906101000a900460ff1661032e576040517f08c379a00000000000000000000000000000000000000000000000000000000081526004016103259061069e565b60405180910390fd5b6000600460006101000a81548160ff02191690831515021790555060006103676000546103596103d8565b61040f90919063ffffffff16565b90506005600082815260200190815260200160002060009054906101000a900473ffffffffffffffffffffffffffffffffffffffff1691505090565b60008054905090565b600081836103ba91906106ea565b905092915050565b600081836103d0919061071b565b905092915050565b600044426000546040516020016103f1939291906105e6565b6040516020818303038152906040528051906020012060001c905090565b6000818361041d91906107de565b905092915050565b6000813590506104348161086d565b92915050565b60008135905061044981610884565b92915050565b6000806040838503121561046257600080fd5b60006104708582860161043a565b925050602061048185828601610425565b9150509250929050565b6104948161074f565b82525050565b60006104a7600f836106d9565b91507f636f6e746578742069732066756c6c00000000000000000000000000000000006000830152602082019050919050565b60006104e7601d836106d9565b91507f636f6e74657874206973206e6f742061637469766520616e796d6f72650000006000830152602082019050919050565b60006105276032836106d9565b91507f656e74726565206665652073686f756c6420626520736d616c6c65722074686160008301527f6e20656e747269657320726571756972656400000000000000000000000000006020830152604082019050919050565b600061058d601d836106d9565b91507f436f6e74657874206973206e6f742061637469766520616e796d6f72650000006000830152602082019050919050565b6105c981610781565b82525050565b6105e06105db82610781565b6107d4565b82525050565b60006105f282866105cf565b60208201915061060282856105cf565b60208201915061061282846105cf565b602082019150819050949350505050565b6000602082019050610638600083018461048b565b92915050565b600060208201905081810360008301526106578161049a565b9050919050565b60006020820190508181036000830152610677816104da565b9050919050565b600060208201905081810360008301526106978161051a565b9050919050565b600060208201905081810360008301526106b781610580565b9050919050565b60006020820190506106d360008301846105c0565b92915050565b600082825260208201905092915050565b60006106f582610781565b915061070083610781565b9250826107105761070f61083e565b5b828204905092915050565b600061072682610781565b915061073183610781565b9250828210156107445761074361080f565b5b828203905092915050565b600061075a82610761565b9050919050565b600073ffffffffffffffffffffffffffffffffffffffff82169050919050565b6000819050919050565b600061079682610781565b91507fffffffffffffffffffffffffffffffffffffffffffffffffffffffffffffffff8214156107c9576107c861080f565b5b600182019050919050565b6000819050919050565b60006107e982610781565b91506107f483610781565b9250826108045761080361083e565b5b828206905092915050565b7f4e487b7100000000000000000000000000000000000000000000000000000000600052601160045260246000fd5b7f4e487b7100000000000000000000000000000000000000000000000000000000600052601260045260246000fd5b6108768161074f565b811461088157600080fd5b50565b61088d81610781565b811461089857600080fd5b5056fea26469706673582212205499cb6871037c5d916b2534fdd92748e8ceea10f2f08198e417e772e7861dab64736f6c63430008000033",
  "immutableReferences": {},
  "source": "// SPDX-License-Identifier: MIT\r\npragma solidity ^0.8.0;\r\n\r\nimport \"@openzeppelin/contracts/utils/math/SafeMath.sol\";\r\nimport \"@openzeppelin/contracts/token/ERC20/IERC20.sol\";\r\n\r\ncontract Lottery {\r\n    using SafeMath for uint256;\r\n\r\n    uint256 private prizeValue;\r\n    address private manager;\r\n    uint256 private entriesRequired;\r\n    uint256 private currentTicketId;\r\n    bool private isActive;\r\n    address private tokenBUSD;\r\n    mapping(uint256 => address) allParticipants;\r\n\r\n    constructor(uint256 _prizeValue, address _manager, address _tokenBUSD) {\r\n        prizeValue = _prizeValue;\r\n        entriesRequired = _prizeValue;\r\n        manager = _manager;\r\n        isActive=true;\r\n        tokenBUSD=_tokenBUSD;\r\n    }\r\n\r\n    function participate(uint256 _amount, address _particpant) public {\r\n        require(entriesRequired != 0, \"context is full\");\r\n        require(isActive == true, \"context is not active anymore\");\r\n\r\n        uint256 _tickets = _amount.div(10**18);\r\n        require(\r\n            entriesRequired >= _tickets,\r\n            \"entree fee should be smaller than entries required\"\r\n        );\r\n        for (uint256 i = currentTicketId; i < _tickets; i++) {\r\n            allParticipants[i] = _particpant;\r\n            currentTicketId++;\r\n        }\r\n        entriesRequired = entriesRequired.sub(_tickets);\r\n        emit PlayerParticipated(_particpant);\r\n    }\r\n\r\n    function declareWinner() public restricted returns(address){\r\n        require(isActive,\"Context is not active anymore\");\r\n        isActive=false;\r\n        uint256 winnerTicketNo = random().mod(prizeValue);\r\n        return allParticipants[winnerTicketNo];\r\n    }\r\n\r\n    function random() private view returns (uint256) {\r\n        return\r\n            uint256(\r\n                keccak256(\r\n                    abi.encodePacked(\r\n                        block.difficulty,\r\n                        block.timestamp,\r\n                        prizeValue\r\n                    )\r\n                )\r\n            );\r\n    }\r\n\r\n    function getPrizeValue() public view returns(uint256) {\r\n        return prizeValue;\r\n    }\r\n    modifier restricted() {\r\n        require(msg.sender == manager);\r\n        _;\r\n    }\r\n    event PlayerParticipated(\r\n        address playerAddress\r\n    );\r\n}\r\n",
  "sourcePath": "C:\\Users\\sudip\\Desktop\\RealProjects\\LPLottery\\contracts\\Lottery.sol",
  "compiler": {
    "name": "solc",
    "version": "0.8.0+commit.c7dfd78e.Emscripten.clang"
  },
  "schemaVersion": "3.3.4",
  "updatedAt": "2021-07-10T13:55:33.078Z",
  "devdoc": {
    "kind": "dev",
    "methods": {},
    "version": 1
  },
  "userdoc": {
    "kind": "user",
    "methods": {},
    "version": 1
  }
}