{
  "contractName": "LpLottery",
  "abi": [
    {
      "inputs": [
        {
          "internalType": "address",
          "name": "_routerAddres",
          "type": "address"
        },
        {
          "internalType": "address",
          "name": "_tokenSafeMars",
          "type": "address"
        },
        {
          "internalType": "address",
          "name": "_tokenBUSD",
          "type": "address"
        }
      ],
      "stateMutability": "nonpayable",
      "type": "constructor"
    },
    {
      "anonymous": false,
      "inputs": [
        {
          "indexed": false,
          "internalType": "uint256",
          "name": "lotteryId",
          "type": "uint256"
        }
      ],
      "name": "LotteryCreated",
      "type": "event"
    },
    {
      "inputs": [
        {
          "internalType": "uint256",
          "name": "",
          "type": "uint256"
        }
      ],
      "name": "lotteryStructs",
      "outputs": [
        {
          "internalType": "contract Lottery",
          "name": "",
          "type": "address"
        }
      ],
      "stateMutability": "view",
      "type": "function"
    },
    {
      "inputs": [
        {
          "internalType": "uint256",
          "name": "",
          "type": "uint256"
        }
      ],
      "name": "lotteryWinnerDeclared",
      "outputs": [
        {
          "internalType": "bool",
          "name": "",
          "type": "bool"
        }
      ],
      "stateMutability": "view",
      "type": "function"
    },
    {
      "inputs": [],
      "name": "router",
      "outputs": [
        {
          "internalType": "contract IPancakeRouter02",
          "name": "",
          "type": "address"
        }
      ],
      "stateMutability": "view",
      "type": "function"
    },
    {
      "inputs": [],
      "name": "tokenBUSD",
      "outputs": [
        {
          "internalType": "address",
          "name": "",
          "type": "address"
        }
      ],
      "stateMutability": "view",
      "type": "function"
    },
    {
      "inputs": [],
      "name": "tokenSafeMars",
      "outputs": [
        {
          "internalType": "address",
          "name": "",
          "type": "address"
        }
      ],
      "stateMutability": "view",
      "type": "function"
    },
    {
      "inputs": [
        {
          "internalType": "uint256",
          "name": "_prizeValue",
          "type": "uint256"
        }
      ],
      "name": "createContext",
      "outputs": [],
      "stateMutability": "nonpayable",
      "type": "function"
    },
    {
      "inputs": [
        {
          "internalType": "uint256",
          "name": "_lotteryId",
          "type": "uint256"
        }
      ],
      "name": "declareWinner",
      "outputs": [],
      "stateMutability": "nonpayable",
      "type": "function"
    },
    {
      "inputs": [
        {
          "internalType": "uint256",
          "name": "_lotteryId",
          "type": "uint256"
        },
        {
          "internalType": "uint256",
          "name": "amount",
          "type": "uint256"
        }
      ],
      "name": "participateInBusd",
      "outputs": [],
      "stateMutability": "nonpayable",
      "type": "function"
    },
    {
      "inputs": [
        {
          "internalType": "uint256",
          "name": "_lotteryId",
          "type": "uint256"
        },
        {
          "internalType": "uint256",
          "name": "amount",
          "type": "uint256"
        }
      ],
      "name": "participateInSafemars",
      "outputs": [],
      "stateMutability": "nonpayable",
      "type": "function"
    },
    {
      "inputs": [
        {
          "internalType": "uint256",
          "name": "_lotteryId",
          "type": "uint256"
        }
      ],
      "name": "exit",
      "outputs": [],
      "stateMutability": "nonpayable",
      "type": "function"
    }
  ],
  "bytecode": "0x60806040523480156200001157600080fd5b506040516200332438038062003324833981810160405281019062000037919062000169565b828282600160008190555082600160006101000a81548173ffffffffffffffffffffffffffffffffffffffff021916908373ffffffffffffffffffffffffffffffffffffffff16021790555081600260006101000a81548173ffffffffffffffffffffffffffffffffffffffff021916908373ffffffffffffffffffffffffffffffffffffffff16021790555080600360006101000a81548173ffffffffffffffffffffffffffffffffffffffff021916908373ffffffffffffffffffffffffffffffffffffffff16021790555050505033600560006101000a81548173ffffffffffffffffffffffffffffffffffffffff021916908373ffffffffffffffffffffffffffffffffffffffff1602179055505050506200020d565b6000815190506200016381620001f3565b92915050565b6000806000606084860312156200017f57600080fd5b60006200018f8682870162000152565b9350506020620001a28682870162000152565b9250506040620001b58682870162000152565b9150509250925092565b6000620001cc82620001d3565b9050919050565b600073ffffffffffffffffffffffffffffffffffffffff82169050919050565b620001fe81620001bf565b81146200020a57600080fd5b50565b613107806200021d6000396000f3fe60806040523480156200001157600080fd5b5060043610620000ab5760003560e01c80637211ce8c116200006f5780637211ce8c146200017e5780637f8661a1146200019e578063bcbf42f714620001be578063e4905e9b14620001e0578063f887ea40146200020057620000ab565b8062c2943c14620000b0578063213ef7f714620000d05780635a502b9614620000f257806362494eaa146200012857806368fc66f41462000148575b600080fd5b620000ce6004803603810190620000c8919062001cdb565b62000222565b005b620000da62000546565b604051620000e9919062001fcc565b60405180910390f35b6200011060048036038101906200010a919062001cdb565b6200056c565b6040516200011f91906200215e565b60405180910390f35b62000146600480360381019062000140919062001cdb565b6200058c565b005b62000166600480360381019062000160919062001cdb565b620006f1565b60405162000175919062002198565b60405180910390f35b6200019c600480360381019062000196919062001d33565b62000724565b005b620001bc6004803603810190620001b6919062001cdb565b62000ac0565b005b620001c862000b31565b604051620001d7919062001fcc565b60405180910390f35b620001fe6004803603810190620001f8919062001d33565b62000b57565b005b6200020a62000d0d565b6040516200021991906200217b565b60405180910390f35b600560009054906101000a900473ffffffffffffffffffffffffffffffffffffffff1673ffffffffffffffffffffffffffffffffffffffff163373ffffffffffffffffffffffffffffffffffffffff16146200027d57600080fd5b6008600082815260200190815260200160002060009054906101000a900460ff1615620002e1576040517f08c379a0000000000000000000000000000000000000000000000000000000008152600401620002d890620021d7565b60405180910390fd5b60016008600083815260200190815260200160002060006101000a81548160ff02191690831515021790555060006007600083815260200190815260200160002060009054906101000a900473ffffffffffffffffffffffffffffffffffffffff1673ffffffffffffffffffffffffffffffffffffffff166314034bd26040518163ffffffff1660e01b8152600401602060405180830381600087803b1580156200038b57600080fd5b505af1158015620003a0573d6000803e3d6000fd5b505050506040513d601f19601f82011682018060405250810190620003c6919062001c83565b90506000620004896007600085815260200190815260200160002060009054906101000a900473ffffffffffffffffffffffffffffffffffffffff1673ffffffffffffffffffffffffffffffffffffffff1663b8760e6b6040518163ffffffff1660e01b815260040160206040518083038186803b1580156200044857600080fd5b505afa1580156200045d573d6000803e3d6000fd5b505050506040513d601f19601f8201168201806040525081019062000483919062001d07565b62000d33565b9050600260009054906101000a900473ffffffffffffffffffffffffffffffffffffffff1673ffffffffffffffffffffffffffffffffffffffff1663a9059cbb83836040518363ffffffff1660e01b8152600401620004ea92919062002131565b602060405180830381600087803b1580156200050557600080fd5b505af11580156200051a573d6000803e3d6000fd5b505050506040513d601f19601f8201168201806040525081019062000540919062001caf565b50505050565b600360009054906101000a900473ffffffffffffffffffffffffffffffffffffffff1681565b60086020528060005260406000206000915054906101000a900460ff1681565b600560009054906101000a900473ffffffffffffffffffffffffffffffffffffffff1673ffffffffffffffffffffffffffffffffffffffff163373ffffffffffffffffffffffffffffffffffffffff1614620005e757600080fd5b8030600360009054906101000a900473ffffffffffffffffffffffffffffffffffffffff166040516200061a9062001c19565b620006289392919062002265565b604051809103906000f08015801562000645573d6000803e3d6000fd5b5060076000600654815260200190815260200160002060006101000a81548173ffffffffffffffffffffffffffffffffffffffff021916908373ffffffffffffffffffffffffffffffffffffffff16021790555060066000815480929190620006ae906200252f565b91905055507f9e0023bebcc752baaa41057318405b5a6a8e9c6372b519717cfdf238e5caa795600654604051620006e691906200221b565b60405180910390a150565b60076020528060005260406000206000915054906101000a900473ffffffffffffffffffffffffffffffffffffffff1681565b600260005414156200076d576040517f08c379a00000000000000000000000000000000000000000000000000000000081526004016200076490620021f9565b60405180910390fd5b60026000819055506000600260009054906101000a900473ffffffffffffffffffffffffffffffffffffffff1673ffffffffffffffffffffffffffffffffffffffff166370a08231306040518263ffffffff1660e01b8152600401620007d4919062001fcc565b60206040518083038186803b158015620007ed57600080fd5b505afa15801562000802573d6000803e3d6000fd5b505050506040513d601f19601f8201168201806040525081019062000828919062001d07565b9050600260009054906101000a900473ffffffffffffffffffffffffffffffffffffffff1673ffffffffffffffffffffffffffffffffffffffff166323b872dd3330856040518463ffffffff1660e01b81526004016200088b9392919062001fe9565b602060405180830381600087803b158015620008a657600080fd5b505af1158015620008bb573d6000803e3d6000fd5b505050506040513d601f19601f82011682018060405250810190620008e1919062001caf565b50620009a781600260009054906101000a900473ffffffffffffffffffffffffffffffffffffffff1673ffffffffffffffffffffffffffffffffffffffff166370a08231306040518263ffffffff1660e01b815260040162000944919062001fcc565b60206040518083038186803b1580156200095d57600080fd5b505afa15801562000972573d6000803e3d6000fd5b505050506040513d601f19601f8201168201806040525081019062000998919062001d07565b62000d8d90919063ffffffff16565b91506000620009d66064620009c760048662000da590919063ffffffff16565b62000dbd90919063ffffffff16565b90506000620009e58262000dd5565b90506007600086815260200190815260200160002060009054906101000a900473ffffffffffffffffffffffffffffffffffffffff1673ffffffffffffffffffffffffffffffffffffffff166313b1864082336040518363ffffffff1660e01b815260040162000a5792919062002238565b600060405180830381600087803b15801562000a7257600080fd5b505af115801562000a87573d6000803e3d6000fd5b50505050600062000aa2838662000d8d90919063ffffffff16565b905062000ab0813362000e2f565b5050505060016000819055505050565b6008600082815260200190815260200160002060009054906101000a900460ff1662000b23576040517f08c379a000000000000000000000000000000000000000000000000000000000815260040162000b1a90620021b5565b60405180910390fd5b62000b2e3362000ecb565b50565b600260009054906101000a900473ffffffffffffffffffffffffffffffffffffffff1681565b600360009054906101000a900473ffffffffffffffffffffffffffffffffffffffff1673ffffffffffffffffffffffffffffffffffffffff166323b872dd3330846040518463ffffffff1660e01b815260040162000bb89392919062001fe9565b602060405180830381600087803b15801562000bd357600080fd5b505af115801562000be8573d6000803e3d6000fd5b505050506040513d601f19601f8201168201806040525081019062000c0e919062001caf565b50600062000c3c606462000c2d60048562000da590919063ffffffff16565b62000dbd90919063ffffffff16565b90506007600084815260200190815260200160002060009054906101000a900473ffffffffffffffffffffffffffffffffffffffff1673ffffffffffffffffffffffffffffffffffffffff166313b1864082336040518363ffffffff1660e01b815260040162000cae92919062002238565b600060405180830381600087803b15801562000cc957600080fd5b505af115801562000cde573d6000803e3d6000fd5b50505050600062000cf9828462000d8d90919063ffffffff16565b905062000d07813362001061565b50505050565b600160009054906101000a900473ffffffffffffffffffffffffffffffffffffffff1681565b600062000d86600360009054906101000a900473ffffffffffffffffffffffffffffffffffffffff16600260009054906101000a900473ffffffffffffffffffffffffffffffffffffffff1684620010fd565b9050919050565b6000818362000d9d919062002446565b905092915050565b6000818362000db59190620023e5565b905092915050565b6000818362000dcd9190620023ad565b905092915050565b600062000e28600260009054906101000a900473ffffffffffffffffffffffffffffffffffffffff16600360009054906101000a900473ffffffffffffffffffffffffffffffffffffffff1684620010fd565b9050919050565b600062000e4760028462000dbd90919063ffffffff16565b9050600062000e60828562000d8d90919063ffffffff16565b9050600062000eb5600260009054906101000a900473ffffffffffffffffffffffffffffffffffffffff16600360009054906101000a900473ffffffffffffffffffffffffffffffffffffffff1684620010fd565b905062000ec483828662001559565b5050505050565b6000600460008373ffffffffffffffffffffffffffffffffffffffff1673ffffffffffffffffffffffffffffffffffffffff168152602001908152602001600020905062000f1e81600201548362001958565b600062000f75600360009054906101000a900473ffffffffffffffffffffffffffffffffffffffff16600260009054906101000a900473ffffffffffffffffffffffffffffffffffffffff168460010154620010fd565b9050600082600101819055506000826000018190555062000fa482600001548262001b7790919063ffffffff16565b9050600260009054906101000a900473ffffffffffffffffffffffffffffffffffffffff1673ffffffffffffffffffffffffffffffffffffffff1663a9059cbb84836040518363ffffffff1660e01b81526004016200100592919062002131565b602060405180830381600087803b1580156200102057600080fd5b505af115801562001035573d6000803e3d6000fd5b505050506040513d601f19601f820116820180604052508101906200105b919062001caf565b50505050565b60006200107960028462000dbd90919063ffffffff16565b9050600062001092828562000d8d90919063ffffffff16565b90506000620010e7600360009054906101000a900473ffffffffffffffffffffffffffffffffffffffff16600260009054906101000a900473ffffffffffffffffffffffffffffffffffffffff1684620010fd565b9050620010f681848662001559565b5050505050565b60006002600054141562001148576040517f08c379a00000000000000000000000000000000000000000000000000000000081526004016200113f90620021f9565b60405180910390fd5b60026000819055508373ffffffffffffffffffffffffffffffffffffffff1663095ea7b3600160009054906101000a900473ffffffffffffffffffffffffffffffffffffffff16846040518363ffffffff1660e01b8152600401620011af92919062002131565b602060405180830381600087803b158015620011ca57600080fd5b505af1158015620011df573d6000803e3d6000fd5b505050506040513d601f19601f8201168201806040525081019062001205919062001caf565b506000600267ffffffffffffffff8111156200124a577f4e487b7100000000000000000000000000000000000000000000000000000000600052604160045260246000fd5b604051908082528060200260200182016040528015620012795781602001602082028036833780820191505090505b5090508481600081518110620012b8577f4e487b7100000000000000000000000000000000000000000000000000000000600052603260045260246000fd5b602002602001019073ffffffffffffffffffffffffffffffffffffffff16908173ffffffffffffffffffffffffffffffffffffffff168152505083816001815181106200132e577f4e487b7100000000000000000000000000000000000000000000000000000000600052603260045260246000fd5b602002602001019073ffffffffffffffffffffffffffffffffffffffff16908173ffffffffffffffffffffffffffffffffffffffff168152505060008473ffffffffffffffffffffffffffffffffffffffff166370a08231306040518263ffffffff1660e01b8152600401620013a5919062001fcc565b60206040518083038186803b158015620013be57600080fd5b505afa158015620013d3573d6000803e3d6000fd5b505050506040513d601f19601f82011682018060405250810190620013f9919062001d07565b9050600160009054906101000a900473ffffffffffffffffffffffffffffffffffffffff1673ffffffffffffffffffffffffffffffffffffffff16635c11d7958560008530603c426200144d919062002350565b6040518663ffffffff1660e01b81526004016200146f959493929190620022a2565b600060405180830381600087803b1580156200148a57600080fd5b505af11580156200149f573d6000803e3d6000fd5b5050505062001546818673ffffffffffffffffffffffffffffffffffffffff166370a08231306040518263ffffffff1660e01b8152600401620014e3919062001fcc565b60206040518083038186803b158015620014fc57600080fd5b505afa15801562001511573d6000803e3d6000fd5b505050506040513d601f19601f8201168201806040525081019062001537919062001d07565b62000d8d90919063ffffffff16565b9250505060016000819055509392505050565b600260009054906101000a900473ffffffffffffffffffffffffffffffffffffffff1673ffffffffffffffffffffffffffffffffffffffff1663095ea7b3600160009054906101000a900473ffffffffffffffffffffffffffffffffffffffff16856040518363ffffffff1660e01b8152600401620015da92919062002131565b602060405180830381600087803b158015620015f557600080fd5b505af11580156200160a573d6000803e3d6000fd5b505050506040513d601f19601f8201168201806040525081019062001630919062001caf565b50600360009054906101000a900473ffffffffffffffffffffffffffffffffffffffff1673ffffffffffffffffffffffffffffffffffffffff1663095ea7b3600160009054906101000a900473ffffffffffffffffffffffffffffffffffffffff16846040518363ffffffff1660e01b8152600401620016b292919062002131565b602060405180830381600087803b158015620016cd57600080fd5b505af1158015620016e2573d6000803e3d6000fd5b505050506040513d601f19601f8201168201806040525081019062001708919062001caf565b506000806000600160009054906101000a900473ffffffffffffffffffffffffffffffffffffffff1673ffffffffffffffffffffffffffffffffffffffff1663e8e33700600260009054906101000a900473ffffffffffffffffffffffffffffffffffffffff16600360009054906101000a900473ffffffffffffffffffffffffffffffffffffffff1689896000803061016842620017a8919062002350565b6040518963ffffffff1660e01b8152600401620017cd989796959493929190620020a3565b606060405180830381600087803b158015620017e857600080fd5b505af1158015620017fd573d6000803e3d6000fd5b505050506040513d601f19601f8201168201806040525081019062001823919062001db5565b9250925092506000806200183662001b8f565b15620018745762001851858962000d8d90919063ffffffff16565b62001866858962000d8d90919063ffffffff16565b8092508193505050620018a7565b62001889848962000d8d90919063ffffffff16565b6200189e868962000d8d90919063ffffffff16565b80925081935050505b6000600460008873ffffffffffffffffffffffffffffffffffffffff1673ffffffffffffffffffffffffffffffffffffffff16815260200190815260200160002090506200190383826000015462001b7790919063ffffffff16565b81600001819055506200192482826001015462001b7790919063ffffffff16565b81600101819055506200194584826002015462001b7790919063ffffffff16565b8160020181905550505050505050505050565b600080600160009054906101000a900473ffffffffffffffffffffffffffffffffffffffff1673ffffffffffffffffffffffffffffffffffffffff1663baa2abde600260009054906101000a900473ffffffffffffffffffffffffffffffffffffffff16600360009054906101000a900473ffffffffffffffffffffffffffffffffffffffff16876000803061016842620019f4919062002350565b6040518863ffffffff1660e01b815260040162001a18979695949392919062002026565b6040805180830381600087803b15801562001a3257600080fd5b505af115801562001a47573d6000803e3d6000fd5b505050506040513d601f19601f8201168201806040525081019062001a6d919062001d74565b915091506000600460008573ffffffffffffffffffffffffffffffffffffffff1673ffffffffffffffffffffffffffffffffffffffff168152602001908152602001600020905062001abe62001b8f565b1562001b0c5762001add83826000015462001b7790919063ffffffff16565b816000018190555062001afe82826001015462001b7790919063ffffffff16565b816001018190555062001b4f565b62001b2582826000015462001b7790919063ffffffff16565b816000018190555062001b4683826001015462001b7790919063ffffffff16565b81600101819055505b62001b6885826002015462000d8d90919063ffffffff16565b81600201819055505050505050565b6000818362001b87919062002350565b905092915050565b6000600360009054906101000a900473ffffffffffffffffffffffffffffffffffffffff1673ffffffffffffffffffffffffffffffffffffffff16600260009054906101000a900473ffffffffffffffffffffffffffffffffffffffff1673ffffffffffffffffffffffffffffffffffffffff161062001c1157600062001c14565b60015b905090565b610aa8806200262a83390190565b60008151905062001c3881620025db565b92915050565b60008151905062001c4f81620025f5565b92915050565b60008135905062001c66816200260f565b92915050565b60008151905062001c7d816200260f565b92915050565b60006020828403121562001c9657600080fd5b600062001ca68482850162001c27565b91505092915050565b60006020828403121562001cc257600080fd5b600062001cd28482850162001c3e565b91505092915050565b60006020828403121562001cee57600080fd5b600062001cfe8482850162001c55565b91505092915050565b60006020828403121562001d1a57600080fd5b600062001d2a8482850162001c6c565b91505092915050565b6000806040838503121562001d4757600080fd5b600062001d578582860162001c55565b925050602062001d6a8582860162001c55565b9150509250929050565b6000806040838503121562001d8857600080fd5b600062001d988582860162001c6c565b925050602062001dab8582860162001c6c565b9150509250929050565b60008060006060848603121562001dcb57600080fd5b600062001ddb8682870162001c6c565b935050602062001dee8682870162001c6c565b925050604062001e018682870162001c6c565b9150509250925092565b600062001e19838362001e25565b60208301905092915050565b62001e308162002481565b82525050565b62001e418162002481565b82525050565b600062001e548262002316565b62001e6081856200232e565b935062001e6d8362002306565b8060005b8381101562001ea457815162001e88888262001e0b565b975062001e958362002321565b92505060018101905062001e71565b5085935050505092915050565b62001ebc8162002495565b82525050565b62001ecd81620024cb565b82525050565b62001ede81620024f3565b82525050565b62001eef816200251b565b82525050565b600062001f046013836200233f565b91507f57696e6e6572206e6f74206465636c61726564000000000000000000000000006000830152602082019050919050565b600062001f466017836200233f565b91507f57696e6e657220616c7265616479206465636c617265640000000000000000006000830152602082019050919050565b600062001f88601f836200233f565b91507f5265656e7472616e637947756172643a207265656e7472616e742063616c6c006000830152602082019050919050565b62001fc681620024c1565b82525050565b600060208201905062001fe3600083018462001e36565b92915050565b600060608201905062002000600083018662001e36565b6200200f602083018562001e36565b6200201e604083018462001fbb565b949350505050565b600060e0820190506200203d600083018a62001e36565b6200204c602083018962001e36565b6200205b604083018862001fbb565b6200206a606083018762001ee4565b62002079608083018662001ee4565b6200208860a083018562001e36565b6200209760c083018462001fbb565b98975050505050505050565b600061010082019050620020bb600083018b62001e36565b620020ca602083018a62001e36565b620020d9604083018962001fbb565b620020e8606083018862001fbb565b620020f7608083018762001ee4565b6200210660a083018662001ee4565b6200211560c083018562001e36565b6200212460e083018462001fbb565b9998505050505050505050565b600060408201905062002148600083018562001e36565b62002157602083018462001fbb565b9392505050565b600060208201905062002175600083018462001eb1565b92915050565b600060208201905062002192600083018462001ec2565b92915050565b6000602082019050620021af600083018462001ed3565b92915050565b60006020820190508181036000830152620021d08162001ef5565b9050919050565b60006020820190508181036000830152620021f28162001f37565b9050919050565b60006020820190508181036000830152620022148162001f79565b9050919050565b600060208201905062002232600083018462001fbb565b92915050565b60006040820190506200224f600083018562001fbb565b6200225e602083018462001e36565b9392505050565b60006060820190506200227c600083018662001fbb565b6200228b602083018562001e36565b6200229a604083018462001e36565b949350505050565b600060a082019050620022b9600083018862001fbb565b620022c8602083018762001ee4565b8181036040830152620022dc818662001e47565b9050620022ed606083018562001e36565b620022fc608083018462001fbb565b9695505050505050565b6000819050602082019050919050565b600081519050919050565b6000602082019050919050565b600082825260208201905092915050565b600082825260208201905092915050565b60006200235d82620024c1565b91506200236a83620024c1565b9250827fffffffffffffffffffffffffffffffffffffffffffffffffffffffffffffffff03821115620023a257620023a16200257d565b5b828201905092915050565b6000620023ba82620024c1565b9150620023c783620024c1565b925082620023da57620023d9620025ac565b5b828204905092915050565b6000620023f282620024c1565b9150620023ff83620024c1565b9250817fffffffffffffffffffffffffffffffffffffffffffffffffffffffffffffffff04831182151516156200243b576200243a6200257d565b5b828202905092915050565b60006200245382620024c1565b91506200246083620024c1565b9250828210156200247657620024756200257d565b5b828203905092915050565b60006200248e82620024a1565b9050919050565b60008115159050919050565b600073ffffffffffffffffffffffffffffffffffffffff82169050919050565b6000819050919050565b6000620024d882620024df565b9050919050565b6000620024ec82620024a1565b9050919050565b6000620025008262002507565b9050919050565b60006200251482620024a1565b9050919050565b60006200252882620024c1565b9050919050565b60006200253c82620024c1565b91507fffffffffffffffffffffffffffffffffffffffffffffffffffffffffffffffff8214156200257257620025716200257d565b5b600182019050919050565b7f4e487b7100000000000000000000000000000000000000000000000000000000600052601160045260246000fd5b7f4e487b7100000000000000000000000000000000000000000000000000000000600052601260045260246000fd5b620025e68162002481565b8114620025f257600080fd5b50565b620026008162002495565b81146200260c57600080fd5b50565b6200261a81620024c1565b81146200262657600080fd5b5056fe608060405234801561001057600080fd5b50604051610aa8380380610aa88339818101604052810190610032919061010f565b826000819055508260028190555081600160006101000a81548173ffffffffffffffffffffffffffffffffffffffff021916908373ffffffffffffffffffffffffffffffffffffffff1602179055506001600460006101000a81548160ff02191690831515021790555080600460016101000a81548173ffffffffffffffffffffffffffffffffffffffff021916908373ffffffffffffffffffffffffffffffffffffffff1602179055505050506101c8565b6000815190506100f48161019a565b92915050565b600081519050610109816101b1565b92915050565b60008060006060848603121561012457600080fd5b6000610132868287016100fa565b9350506020610143868287016100e5565b9250506040610154868287016100e5565b9150509250925092565b600061016982610170565b9050919050565b600073ffffffffffffffffffffffffffffffffffffffff82169050919050565b6000819050919050565b6101a38161015e565b81146101ae57600080fd5b50565b6101ba81610190565b81146101c557600080fd5b50565b6108d1806101d76000396000f3fe608060405234801561001057600080fd5b50600436106100415760003560e01c806313b186401461004657806314034bd214610062578063b8760e6b14610080575b600080fd5b610060600480360381019061005b919061044f565b61009e565b005b61006a610283565b6040516100779190610623565b60405180910390f35b6100886103a3565b60405161009591906106be565b60405180910390f35b600060025414156100e4576040517f08c379a00000000000000000000000000000000000000000000000000000000081526004016100db9061063e565b60405180910390fd5b60011515600460009054906101000a900460ff1615151461013a576040517f08c379a00000000000000000000000000000000000000000000000000000000081526004016101319061065e565b60405180910390fd5b6000610157670de0b6b3a7640000846103ac90919063ffffffff16565b905080600254101561019e576040517f08c379a00000000000000000000000000000000000000000000000000000000081526004016101959061067e565b60405180910390fd5b600060035490505b8181101561022b57826005600083815260200190815260200160002060006101000a81548173ffffffffffffffffffffffffffffffffffffffff021916908373ffffffffffffffffffffffffffffffffffffffff160217905550600360008154809291906102139061078b565b919050555080806102239061078b565b9150506101a6565b50610241816002546103c290919063ffffffff16565b6002819055507f609ccaad0d5a048d24b2ea393937b393e3ad528ec64eca22004023379ea26f42826040516102769190610623565b60405180910390a1505050565b6000600160009054906101000a900473ffffffffffffffffffffffffffffffffffffffff1673ffffffffffffffffffffffffffffffffffffffff163373ffffffffffffffffffffffffffffffffffffffff16146102df57600080fd5b600460009054906101000a900460ff1661032e576040517f08c379a00000000000000000000000000000000000000000000000000000000081526004016103259061069e565b60405180910390fd5b6000600460006101000a81548160ff02191690831515021790555060006103676000546103596103d8565b61040f90919063ffffffff16565b90506005600082815260200190815260200160002060009054906101000a900473ffffffffffffffffffffffffffffffffffffffff1691505090565b60008054905090565b600081836103ba91906106ea565b905092915050565b600081836103d0919061071b565b905092915050565b600044426000546040516020016103f1939291906105e6565b6040516020818303038152906040528051906020012060001c905090565b6000818361041d91906107de565b905092915050565b6000813590506104348161086d565b92915050565b60008135905061044981610884565b92915050565b6000806040838503121561046257600080fd5b60006104708582860161043a565b925050602061048185828601610425565b9150509250929050565b6104948161074f565b82525050565b60006104a7600f836106d9565b91507f636f6e746578742069732066756c6c00000000000000000000000000000000006000830152602082019050919050565b60006104e7601d836106d9565b91507f636f6e74657874206973206e6f742061637469766520616e796d6f72650000006000830152602082019050919050565b60006105276032836106d9565b91507f656e74726565206665652073686f756c6420626520736d616c6c65722074686160008301527f6e20656e747269657320726571756972656400000000000000000000000000006020830152604082019050919050565b600061058d601d836106d9565b91507f436f6e74657874206973206e6f742061637469766520616e796d6f72650000006000830152602082019050919050565b6105c981610781565b82525050565b6105e06105db82610781565b6107d4565b82525050565b60006105f282866105cf565b60208201915061060282856105cf565b60208201915061061282846105cf565b602082019150819050949350505050565b6000602082019050610638600083018461048b565b92915050565b600060208201905081810360008301526106578161049a565b9050919050565b60006020820190508181036000830152610677816104da565b9050919050565b600060208201905081810360008301526106978161051a565b9050919050565b600060208201905081810360008301526106b781610580565b9050919050565b60006020820190506106d360008301846105c0565b92915050565b600082825260208201905092915050565b60006106f582610781565b915061070083610781565b9250826107105761070f61083e565b5b828204905092915050565b600061072682610781565b915061073183610781565b9250828210156107445761074361080f565b5b828203905092915050565b600061075a82610761565b9050919050565b600073ffffffffffffffffffffffffffffffffffffffff82169050919050565b6000819050919050565b600061079682610781565b91507fffffffffffffffffffffffffffffffffffffffffffffffffffffffffffffffff8214156107c9576107c861080f565b5b600182019050919050565b6000819050919050565b60006107e982610781565b91506107f483610781565b9250826108045761080361083e565b5b828206905092915050565b7f4e487b7100000000000000000000000000000000000000000000000000000000600052601160045260246000fd5b7f4e487b7100000000000000000000000000000000000000000000000000000000600052601260045260246000fd5b6108768161074f565b811461088157600080fd5b50565b61088d81610781565b811461089857600080fd5b5056fea26469706673582212205499cb6871037c5d916b2534fdd92748e8ceea10f2f08198e417e772e7861dab64736f6c63430008000033a264697066735822122080a17efc295a415c6f958d51b3af5bcb53ded07b7b6f39b74259c962e8c86fb664736f6c63430008000033",
  "immutableReferences": {},
  "source": "// SPDX-License-Identifier: MIT\r\npragma solidity ^0.8.0;\r\n\r\nimport \"./PancakeClass.sol\";\r\nimport \"./Lottery.sol\";\r\n\r\ncontract LpLottery is PancakeClass {\r\n    address private admin;\r\n    uint256 private lotteryId;\r\n    mapping(uint256 => Lottery) public lotteryStructs;\r\n    mapping(uint256 => bool) public lotteryWinnerDeclared;\r\n    using SafeMath for uint256;\r\n\r\n    constructor(\r\n        address _routerAddres,\r\n        address _tokenSafeMars,\r\n        address _tokenBUSD\r\n    ) PancakeClass(_routerAddres, _tokenSafeMars, _tokenBUSD) {\r\n        admin = msg.sender;\r\n    }\r\n    function createContext(uint256 _prizeValue) public restricted {\r\n       lotteryStructs[lotteryId] = new Lottery(_prizeValue, address(this), tokenBUSD);\r\n       lotteryId++;\r\n       emit LotteryCreated(lotteryId);\r\n    }\r\n\r\n    function declareWinner(uint256 _lotteryId) public restricted {\r\n        require(!lotteryWinnerDeclared[_lotteryId], \"Winner already declared\");\r\n        lotteryWinnerDeclared[_lotteryId] = true;\r\n        address winner = lotteryStructs[_lotteryId].declareWinner();\r\n        uint256 tokensGetInSafemars = convertBUSDToSafeMars(lotteryStructs[_lotteryId].getPrizeValue());\r\n        IERC20(tokenSafeMars).transfer(winner, tokensGetInSafemars);\r\n    }\r\n\r\n    function participateInBusd(uint256 _lotteryId, uint256 amount) public {\r\n        IERC20(tokenBUSD).transferFrom(msg.sender, address(this), amount);\r\n\r\n        uint256 entryFee = amount.mul(4).div(100);\r\n        lotteryStructs[_lotteryId].participate(entryFee, msg.sender);\r\n        uint256 stakingAmount = amount.sub(entryFee);\r\n        stakeInBUSD(stakingAmount, msg.sender);\r\n    }\r\n\r\n    function participateInSafemars(uint256 _lotteryId, uint256 amount) public nonReentrant {\r\n        uint256 initBalance = IERC20(tokenSafeMars).balanceOf(address(this));\r\n        IERC20(tokenSafeMars).transferFrom(msg.sender, address(this), amount);\r\n        amount = IERC20(tokenSafeMars).balanceOf(address(this)).sub(initBalance);\r\n        \r\n        uint256 entryFee = amount.mul(4).div(100);\r\n        uint256 tokensGetInBusd = convertSafeMarsToBUSD(entryFee);\r\n        lotteryStructs[_lotteryId].participate(tokensGetInBusd, msg.sender);\r\n\r\n        uint256 stakingAmount = amount.sub(entryFee);\r\n        stakeInSafeMars(stakingAmount, msg.sender);\r\n    }\r\n\r\n    function exit(uint256 _lotteryId) public {\r\n        require(lotteryWinnerDeclared[_lotteryId], \"Winner not declared\");\r\n        unstakeAllToSafeMars(msg.sender);\r\n    }\r\n\r\n    modifier restricted() {\r\n        require(msg.sender == admin);\r\n        _;\r\n    }\r\n\r\n    event LotteryCreated(\r\n        uint256 lotteryId\r\n    );\r\n}\r\n",
  "sourcePath": "C:/Users/sudip/Desktop/RealProjects/LPLottery/contracts/LpLottery.sol",
  "compiler": {
    "name": "solc",
    "version": "0.8.0+commit.c7dfd78e.Emscripten.clang"
  },
  "schemaVersion": "3.3.4",
  "updatedAt": "2021-07-10T13:55:33.124Z",
  "devdoc": {
    "kind": "dev",
    "methods": {},
    "version": 1
  },
  "userdoc": {
    "kind": "user",
    "methods": {},
    "version": 1
  }
}