{
  "contractName": "LpLottery",
  "abi": [
    {
      "inputs": [
        {
          "internalType": "address",
          "name": "_routerAddres",
          "type": "address"
        },
        {
          "internalType": "address",
          "name": "_tokenSafeMars",
          "type": "address"
        },
        {
          "internalType": "address",
          "name": "_tokenBUSD",
          "type": "address"
        }
      ],
      "stateMutability": "nonpayable",
      "type": "constructor"
    },
    {
      "anonymous": false,
      "inputs": [
        {
          "indexed": false,
          "internalType": "uint256",
          "name": "lotteryId",
          "type": "uint256"
        }
      ],
      "name": "LotteryCreated",
      "type": "event"
    },
    {
      "inputs": [],
      "name": "router",
      "outputs": [
        {
          "internalType": "contract IPancakeRouter02",
          "name": "",
          "type": "address"
        }
      ],
      "stateMutability": "view",
      "type": "function"
    },
    {
      "inputs": [],
      "name": "tokenBUSD",
      "outputs": [
        {
          "internalType": "address",
          "name": "",
          "type": "address"
        }
      ],
      "stateMutability": "view",
      "type": "function"
    },
    {
      "inputs": [],
      "name": "tokenSafeMars",
      "outputs": [
        {
          "internalType": "address",
          "name": "",
          "type": "address"
        }
      ],
      "stateMutability": "view",
      "type": "function"
    },
    {
      "inputs": [
        {
          "internalType": "uint256",
          "name": "_prizeValue",
          "type": "uint256"
        }
      ],
      "name": "createContext",
      "outputs": [],
      "stateMutability": "nonpayable",
      "type": "function"
    },
    {
      "inputs": [
        {
          "internalType": "uint256",
          "name": "_lotteryId",
          "type": "uint256"
        }
      ],
      "name": "declareWinner",
      "outputs": [],
      "stateMutability": "nonpayable",
      "type": "function"
    },
    {
      "inputs": [
        {
          "internalType": "uint256",
          "name": "_lotteryId",
          "type": "uint256"
        },
        {
          "internalType": "uint256",
          "name": "amount",
          "type": "uint256"
        }
      ],
      "name": "participateInBusd",
      "outputs": [],
      "stateMutability": "nonpayable",
      "type": "function"
    },
    {
      "inputs": [
        {
          "internalType": "uint256",
          "name": "_lotteryId",
          "type": "uint256"
        },
        {
          "internalType": "uint256",
          "name": "amount",
          "type": "uint256"
        }
      ],
      "name": "participateInSafemars",
      "outputs": [],
      "stateMutability": "nonpayable",
      "type": "function"
    }
  ],
  "bytecode": "0x60806040523480156200001157600080fd5b506040516200264038038062002640833981810160405281019062000037919062000169565b828282600160008190555082600160006101000a81548173ffffffffffffffffffffffffffffffffffffffff021916908373ffffffffffffffffffffffffffffffffffffffff16021790555081600260006101000a81548173ffffffffffffffffffffffffffffffffffffffff021916908373ffffffffffffffffffffffffffffffffffffffff16021790555080600360006101000a81548173ffffffffffffffffffffffffffffffffffffffff021916908373ffffffffffffffffffffffffffffffffffffffff16021790555050505033600560006101000a81548173ffffffffffffffffffffffffffffffffffffffff021916908373ffffffffffffffffffffffffffffffffffffffff1602179055505050506200020d565b6000815190506200016381620001f3565b92915050565b6000806000606084860312156200017f57600080fd5b60006200018f8682870162000152565b9350506020620001a28682870162000152565b9250506040620001b58682870162000152565b9150509250925092565b6000620001cc82620001d3565b9050919050565b600073ffffffffffffffffffffffffffffffffffffffff82169050919050565b620001fe81620001bf565b81146200020a57600080fd5b50565b612423806200021d6000396000f3fe60806040523480156200001157600080fd5b5060043610620000875760003560e01c80637211ce8c11620000635780637211ce8c14620000ee578063bcbf42f7146200010e578063e4905e9b1462000130578063f887ea4014620001505762000087565b8062c2943c146200008c578063213ef7f714620000ac57806362494eaa14620000ce575b600080fd5b620000aa6004803603810190620000a491906200125a565b62000172565b005b620000b662000265565b604051620000c5919062001464565b60405180910390f35b620000ec6004803603810190620000e691906200125a565b6200028b565b005b6200010c6004803603810190620001069190620012b2565b620003f0565b005b62000118620005fa565b60405162000127919062001464565b60405180910390f35b6200014e6004803603810190620001489190620012b2565b62000620565b005b6200015a620007d4565b6040516200016991906200153c565b60405180910390f35b600560009054906101000a900473ffffffffffffffffffffffffffffffffffffffff1673ffffffffffffffffffffffffffffffffffffffff163373ffffffffffffffffffffffffffffffffffffffff1614620001cd57600080fd5b6007600082815260200190815260200160002060009054906101000a900473ffffffffffffffffffffffffffffffffffffffff1673ffffffffffffffffffffffffffffffffffffffff166314034bd26040518163ffffffff1660e01b8152600401600060405180830381600087803b1580156200024957600080fd5b505af11580156200025e573d6000803e3d6000fd5b5050505050565b600360009054906101000a900473ffffffffffffffffffffffffffffffffffffffff1681565b600560009054906101000a900473ffffffffffffffffffffffffffffffffffffffff1673ffffffffffffffffffffffffffffffffffffffff163373ffffffffffffffffffffffffffffffffffffffff1614620002e657600080fd5b60066000815480929190620002fb9062001867565b91905055508030600360009054906101000a900473ffffffffffffffffffffffffffffffffffffffff166040516200033390620011db565b6200034193929190620015c5565b604051809103906000f0801580156200035e573d6000803e3d6000fd5b5060076000600654815260200190815260200160002060006101000a81548173ffffffffffffffffffffffffffffffffffffffff021916908373ffffffffffffffffffffffffffffffffffffffff1602179055507f9e0023bebcc752baaa41057318405b5a6a8e9c6372b519717cfdf238e5caa795600654604051620003e591906200157b565b60405180910390a150565b60006200041d60646200040e600485620007fa90919063ffffffff16565b6200081290919063ffffffff16565b9050600062000472600260009054906101000a900473ffffffffffffffffffffffffffffffffffffffff16600360009054906101000a900473ffffffffffffffffffffffffffffffffffffffff16846200082a565b9050600360009054906101000a900473ffffffffffffffffffffffffffffffffffffffff1673ffffffffffffffffffffffffffffffffffffffff1663a9059cbb30836040518363ffffffff1660e01b8152600401620004d39291906200150f565b602060405180830381600087803b158015620004ee57600080fd5b505af115801562000503573d6000803e3d6000fd5b505050506040513d601f19601f820116820180604052508101906200052991906200122e565b506007600085815260200190815260200160002060009054906101000a900473ffffffffffffffffffffffffffffffffffffffff1673ffffffffffffffffffffffffffffffffffffffff166313b1864082336040518363ffffffff1660e01b81526004016200059a92919062001598565b600060405180830381600087803b158015620005b557600080fd5b505af1158015620005ca573d6000803e3d6000fd5b505050506000620005e5838562000c8690919063ffffffff16565b9050620005f3813362000c9e565b5050505050565b600260009054906101000a900473ffffffffffffffffffffffffffffffffffffffff1681565b60006200064d60646200063e600485620007fa90919063ffffffff16565b6200081290919063ffffffff16565b9050600360009054906101000a900473ffffffffffffffffffffffffffffffffffffffff1673ffffffffffffffffffffffffffffffffffffffff1663a9059cbb30836040518363ffffffff1660e01b8152600401620006ae9291906200150f565b602060405180830381600087803b158015620006c957600080fd5b505af1158015620006de573d6000803e3d6000fd5b505050506040513d601f19601f820116820180604052508101906200070491906200122e565b506007600084815260200190815260200160002060009054906101000a900473ffffffffffffffffffffffffffffffffffffffff1673ffffffffffffffffffffffffffffffffffffffff166313b1864082336040518363ffffffff1660e01b81526004016200077592919062001598565b600060405180830381600087803b1580156200079057600080fd5b505af1158015620007a5573d6000803e3d6000fd5b505050506000620007c0828462000c8690919063ffffffff16565b9050620007ce813362000c9e565b50505050565b600160009054906101000a900473ffffffffffffffffffffffffffffffffffffffff1681565b600081836200080a919062001745565b905092915050565b600081836200082291906200170d565b905092915050565b60006002600054141562000875576040517f08c379a00000000000000000000000000000000000000000000000000000000081526004016200086c9062001559565b60405180910390fd5b60026000819055508373ffffffffffffffffffffffffffffffffffffffff1663095ea7b3600160009054906101000a900473ffffffffffffffffffffffffffffffffffffffff16846040518363ffffffff1660e01b8152600401620008dc9291906200150f565b602060405180830381600087803b158015620008f757600080fd5b505af11580156200090c573d6000803e3d6000fd5b505050506040513d601f19601f820116820180604052508101906200093291906200122e565b506000600267ffffffffffffffff81111562000977577f4e487b7100000000000000000000000000000000000000000000000000000000600052604160045260246000fd5b604051908082528060200260200182016040528015620009a65781602001602082028036833780820191505090505b5090508481600081518110620009e5577f4e487b7100000000000000000000000000000000000000000000000000000000600052603260045260246000fd5b602002602001019073ffffffffffffffffffffffffffffffffffffffff16908173ffffffffffffffffffffffffffffffffffffffff1681525050838160018151811062000a5b577f4e487b7100000000000000000000000000000000000000000000000000000000600052603260045260246000fd5b602002602001019073ffffffffffffffffffffffffffffffffffffffff16908173ffffffffffffffffffffffffffffffffffffffff168152505060008473ffffffffffffffffffffffffffffffffffffffff166370a08231306040518263ffffffff1660e01b815260040162000ad2919062001464565b60206040518083038186803b15801562000aeb57600080fd5b505afa15801562000b00573d6000803e3d6000fd5b505050506040513d601f19601f8201168201806040525081019062000b26919062001286565b9050600160009054906101000a900473ffffffffffffffffffffffffffffffffffffffff1673ffffffffffffffffffffffffffffffffffffffff16635c11d7958560008530603c4262000b7a9190620016b0565b6040518663ffffffff1660e01b815260040162000b9c95949392919062001602565b600060405180830381600087803b15801562000bb757600080fd5b505af115801562000bcc573d6000803e3d6000fd5b5050505062000c73818673ffffffffffffffffffffffffffffffffffffffff166370a08231306040518263ffffffff1660e01b815260040162000c10919062001464565b60206040518083038186803b15801562000c2957600080fd5b505afa15801562000c3e573d6000803e3d6000fd5b505050506040513d601f19601f8201168201806040525081019062000c64919062001286565b62000c8690919063ffffffff16565b9250505060016000819055509392505050565b6000818362000c969190620017a6565b905092915050565b600062000cb66002846200081290919063ffffffff16565b9050600062000ccf828562000c8690919063ffffffff16565b9050600062000d24600360009054906101000a900473ffffffffffffffffffffffffffffffffffffffff16600260009054906101000a900473ffffffffffffffffffffffffffffffffffffffff16846200082a565b905062000d3381848662000d3a565b5050505050565b600260009054906101000a900473ffffffffffffffffffffffffffffffffffffffff1673ffffffffffffffffffffffffffffffffffffffff1663095ea7b3600160009054906101000a900473ffffffffffffffffffffffffffffffffffffffff16856040518363ffffffff1660e01b815260040162000dbb9291906200150f565b602060405180830381600087803b15801562000dd657600080fd5b505af115801562000deb573d6000803e3d6000fd5b505050506040513d601f19601f8201168201806040525081019062000e1191906200122e565b50600360009054906101000a900473ffffffffffffffffffffffffffffffffffffffff1673ffffffffffffffffffffffffffffffffffffffff1663095ea7b3600160009054906101000a900473ffffffffffffffffffffffffffffffffffffffff16846040518363ffffffff1660e01b815260040162000e939291906200150f565b602060405180830381600087803b15801562000eae57600080fd5b505af115801562000ec3573d6000803e3d6000fd5b505050506040513d601f19601f8201168201806040525081019062000ee991906200122e565b506000806000600160009054906101000a900473ffffffffffffffffffffffffffffffffffffffff1673ffffffffffffffffffffffffffffffffffffffff1663e8e33700600260009054906101000a900473ffffffffffffffffffffffffffffffffffffffff16600360009054906101000a900473ffffffffffffffffffffffffffffffffffffffff168989600080306101684262000f899190620016b0565b6040518963ffffffff1660e01b815260040162000fae98979695949392919062001481565b606060405180830381600087803b15801562000fc957600080fd5b505af115801562000fde573d6000803e3d6000fd5b505050506040513d601f19601f82011682018060405250810190620010049190620012f3565b9250925092506000806200101762001139565b15620010555762001032858962000c8690919063ffffffff16565b62001047858962000c8690919063ffffffff16565b809250819350505062001088565b6200106a848962000c8690919063ffffffff16565b6200107f868962000c8690919063ffffffff16565b80925081935050505b6000600460008873ffffffffffffffffffffffffffffffffffffffff1673ffffffffffffffffffffffffffffffffffffffff1681526020019081526020016000209050620010e4838260000154620011c390919063ffffffff16565b816000018190555062001105828260010154620011c390919063ffffffff16565b816001018190555062001126848260020154620011c390919063ffffffff16565b8160020181905550505050505050505050565b6000600360009054906101000a900473ffffffffffffffffffffffffffffffffffffffff1673ffffffffffffffffffffffffffffffffffffffff16600260009054906101000a900473ffffffffffffffffffffffffffffffffffffffff1673ffffffffffffffffffffffffffffffffffffffff1610620011bb576000620011be565b60015b905090565b60008183620011d39190620016b0565b905092915050565b610aa6806200194883390190565b600081519050620011fa8162001913565b92915050565b60008135905062001211816200192d565b92915050565b60008151905062001228816200192d565b92915050565b6000602082840312156200124157600080fd5b60006200125184828501620011e9565b91505092915050565b6000602082840312156200126d57600080fd5b60006200127d8482850162001200565b91505092915050565b6000602082840312156200129957600080fd5b6000620012a98482850162001217565b91505092915050565b60008060408385031215620012c657600080fd5b6000620012d68582860162001200565b9250506020620012e98582860162001200565b9150509250929050565b6000806000606084860312156200130957600080fd5b6000620013198682870162001217565b93505060206200132c8682870162001217565b92505060406200133f8682870162001217565b9150509250925092565b600062001357838362001363565b60208301905092915050565b6200136e81620017e1565b82525050565b6200137f81620017e1565b82525050565b6000620013928262001676565b6200139e81856200168e565b9350620013ab8362001666565b8060005b83811015620013e2578151620013c6888262001349565b9750620013d38362001681565b925050600181019050620013af565b5085935050505092915050565b620013fa816200182b565b82525050565b6200140b8162001853565b82525050565b600062001420601f836200169f565b91507f5265656e7472616e637947756172643a207265656e7472616e742063616c6c006000830152602082019050919050565b6200145e8162001821565b82525050565b60006020820190506200147b600083018462001374565b92915050565b60006101008201905062001499600083018b62001374565b620014a8602083018a62001374565b620014b7604083018962001453565b620014c6606083018862001453565b620014d5608083018762001400565b620014e460a083018662001400565b620014f360c083018562001374565b6200150260e083018462001453565b9998505050505050505050565b600060408201905062001526600083018562001374565b62001535602083018462001453565b9392505050565b6000602082019050620015536000830184620013ef565b92915050565b60006020820190508181036000830152620015748162001411565b9050919050565b600060208201905062001592600083018462001453565b92915050565b6000604082019050620015af600083018562001453565b620015be602083018462001374565b9392505050565b6000606082019050620015dc600083018662001453565b620015eb602083018562001374565b620015fa604083018462001374565b949350505050565b600060a08201905062001619600083018862001453565b62001628602083018762001400565b81810360408301526200163c818662001385565b90506200164d606083018562001374565b6200165c608083018462001453565b9695505050505050565b6000819050602082019050919050565b600081519050919050565b6000602082019050919050565b600082825260208201905092915050565b600082825260208201905092915050565b6000620016bd8262001821565b9150620016ca8362001821565b9250827fffffffffffffffffffffffffffffffffffffffffffffffffffffffffffffffff03821115620017025762001701620018b5565b5b828201905092915050565b60006200171a8262001821565b9150620017278362001821565b9250826200173a5762001739620018e4565b5b828204905092915050565b6000620017528262001821565b91506200175f8362001821565b9250817fffffffffffffffffffffffffffffffffffffffffffffffffffffffffffffffff04831182151516156200179b576200179a620018b5565b5b828202905092915050565b6000620017b38262001821565b9150620017c08362001821565b925082821015620017d657620017d5620018b5565b5b828203905092915050565b6000620017ee8262001801565b9050919050565b60008115159050919050565b600073ffffffffffffffffffffffffffffffffffffffff82169050919050565b6000819050919050565b600062001838826200183f565b9050919050565b60006200184c8262001801565b9050919050565b6000620018608262001821565b9050919050565b6000620018748262001821565b91507fffffffffffffffffffffffffffffffffffffffffffffffffffffffffffffffff821415620018aa57620018a9620018b5565b5b600182019050919050565b7f4e487b7100000000000000000000000000000000000000000000000000000000600052601160045260246000fd5b7f4e487b7100000000000000000000000000000000000000000000000000000000600052601260045260246000fd5b6200191e81620017f5565b81146200192a57600080fd5b50565b620019388162001821565b81146200194457600080fd5b5056fe608060405234801561001057600080fd5b50604051610aa6380380610aa68339818101604052810190610032919061010f565b826000819055508260028190555081600160006101000a81548173ffffffffffffffffffffffffffffffffffffffff021916908373ffffffffffffffffffffffffffffffffffffffff1602179055506001600460006101000a81548160ff02191690831515021790555080600460016101000a81548173ffffffffffffffffffffffffffffffffffffffff021916908373ffffffffffffffffffffffffffffffffffffffff1602179055505050506101c8565b6000815190506100f48161019a565b92915050565b600081519050610109816101b1565b92915050565b60008060006060848603121561012457600080fd5b6000610132868287016100fa565b9350506020610143868287016100e5565b9250506040610154868287016100e5565b9150509250925092565b600061016982610170565b9050919050565b600073ffffffffffffffffffffffffffffffffffffffff82169050919050565b6000819050919050565b6101a38161015e565b81146101ae57600080fd5b50565b6101ba81610190565b81146101c557600080fd5b50565b6108cf806101d76000396000f3fe608060405234801561001057600080fd5b50600436106100415760003560e01c806313b186401461004657806314034bd214610062578063b8760e6b1461006c575b600080fd5b610060600480360381019061005b9190610492565b61008a565b005b61006a610241565b005b6100746103be565b60405161008191906106ca565b60405180910390f35b600060025414156100d0576040517f08c379a00000000000000000000000000000000000000000000000000000000081526004016100c79061066a565b60405180910390fd5b60011515600460009054906101000a900460ff16151514610126576040517f08c379a000000000000000000000000000000000000000000000000000000000815260040161011d9061068a565b60405180910390fd5b81600254101561016b576040517f08c379a0000000000000000000000000000000000000000000000000000000008152600401610162906106aa565b60405180910390fd5b600060035490505b828110156101ea57816005600083815260200190815260200160002060006101000a81548173ffffffffffffffffffffffffffffffffffffffff021916908373ffffffffffffffffffffffffffffffffffffffff160217905550600360008154809291906101e090610772565b9190505550610173565b50610200826002546103c790919063ffffffff16565b6002819055507f609ccaad0d5a048d24b2ea393937b393e3ad528ec64eca22004023379ea26f42816040516102359190610626565b60405180910390a15050565b600160009054906101000a900473ffffffffffffffffffffffffffffffffffffffff1673ffffffffffffffffffffffffffffffffffffffff163373ffffffffffffffffffffffffffffffffffffffff161461029b57600080fd5b60006102b96000546102ab6103dd565b61041490919063ffffffff16565b90506000600460006101000a81548160ff021916908315150217905550600460019054906101000a900473ffffffffffffffffffffffffffffffffffffffff1673ffffffffffffffffffffffffffffffffffffffff1663a9059cbb6005600084815260200190815260200160002060009054906101000a900473ffffffffffffffffffffffffffffffffffffffff166000546040518363ffffffff1660e01b8152600401610368929190610641565b602060405180830381600087803b15801561038257600080fd5b505af1158015610396573d6000803e3d6000fd5b505050506040513d601f19601f820116820180604052508101906103ba9190610469565b5050565b60008054905090565b600081836103d591906106f6565b905092915050565b600044426000546040516020016103f6939291906105e9565b6040516020818303038152906040528051906020012060001c905090565b6000818361042291906107c5565b905092915050565b60008135905061043981610854565b92915050565b60008151905061044e8161086b565b92915050565b60008135905061046381610882565b92915050565b60006020828403121561047b57600080fd5b60006104898482850161043f565b91505092915050565b600080604083850312156104a557600080fd5b60006104b385828601610454565b92505060206104c48582860161042a565b9150509250929050565b6104d78161072a565b82525050565b60006104ea600f836106e5565b91507f636f6e746578742069732066756c6c00000000000000000000000000000000006000830152602082019050919050565b600061052a601d836106e5565b91507f636f6e74657874206973206e6f742061637469766520616e796d6f72650000006000830152602082019050919050565b600061056a6032836106e5565b91507f656e74726565206665652073686f756c6420626520736d616c6c65722074686160008301527f6e20656e747269657320726571756972656400000000000000000000000000006020830152604082019050919050565b6105cc81610768565b82525050565b6105e36105de82610768565b6107bb565b82525050565b60006105f582866105d2565b60208201915061060582856105d2565b60208201915061061582846105d2565b602082019150819050949350505050565b600060208201905061063b60008301846104ce565b92915050565b600060408201905061065660008301856104ce565b61066360208301846105c3565b9392505050565b60006020820190508181036000830152610683816104dd565b9050919050565b600060208201905081810360008301526106a38161051d565b9050919050565b600060208201905081810360008301526106c38161055d565b9050919050565b60006020820190506106df60008301846105c3565b92915050565b600082825260208201905092915050565b600061070182610768565b915061070c83610768565b92508282101561071f5761071e6107f6565b5b828203905092915050565b600061073582610748565b9050919050565b60008115159050919050565b600073ffffffffffffffffffffffffffffffffffffffff82169050919050565b6000819050919050565b600061077d82610768565b91507fffffffffffffffffffffffffffffffffffffffffffffffffffffffffffffffff8214156107b0576107af6107f6565b5b600182019050919050565b6000819050919050565b60006107d082610768565b91506107db83610768565b9250826107eb576107ea610825565b5b828206905092915050565b7f4e487b7100000000000000000000000000000000000000000000000000000000600052601160045260246000fd5b7f4e487b7100000000000000000000000000000000000000000000000000000000600052601260045260246000fd5b61085d8161072a565b811461086857600080fd5b50565b6108748161073c565b811461087f57600080fd5b50565b61088b81610768565b811461089657600080fd5b5056fea264697066735822122087d7d1ab4af1d5b0021d68822ecc19aecb1e9eec0db87f6227c4cb4b73522cb764736f6c63430008000033a264697066735822122025421c5f8db3e6d7d56b750d94ce1d159cca87e6996a8e44dcfc7b8ca85e2bdb64736f6c63430008000033",
  "immutableReferences": {},
  "source": "// SPDX-License-Identifier: MIT\r\npragma solidity ^0.8.0;\r\nimport \"./PancakeClass.sol\";\r\nimport \"./Lottery.sol\";\r\nimport \"@openzeppelin/contracts/utils/math/SafeMath.sol\";\r\n\r\ncontract LpLottery is PancakeClass {\r\n    address private admin;\r\n    uint256 private lotteryId;\r\n    mapping(uint256=>Lottery) private lotteryStructs;\r\n    using SafeMath for uint256;\r\n\r\n    constructor(\r\n        address _routerAddres,\r\n        address _tokenSafeMars,\r\n        address _tokenBUSD\r\n    ) PancakeClass(_routerAddres, _tokenSafeMars, _tokenBUSD) {\r\n        admin=msg.sender;\r\n    }\r\n    function createContext(uint256 _prizeValue) public restricted{\r\n       lotteryId++;\r\n       lotteryStructs[lotteryId] = new Lottery(_prizeValue, address(this),tokenBUSD);\r\n       emit LotteryCreated(lotteryId);\r\n    }\r\n\r\n    function declareWinner(uint256 _lotteryId) public restricted{\r\n        lotteryStructs[_lotteryId].declareWinner();\r\n    }\r\n\r\n    function participateInBusd(uint256 _lotteryId,uint256 amount) public {\r\n        uint256 entryFee=amount.mul(4).div(100);\r\n        IERC20(tokenBUSD).transfer(address(this),entryFee);\r\n        lotteryStructs[_lotteryId].participate(entryFee,msg.sender);\r\n        uint256 stakingAmount=amount.sub(entryFee);\r\n        stakeInBUSD(stakingAmount, msg.sender);\r\n    }\r\n\r\n    function participateInSafemars(uint256 _lotteryId,uint256 amount) public {\r\n        uint256 entryFee=amount.mul(4).div(100);\r\n        uint256 tokensGetInBusd =_sellXGetY(tokenSafeMars, tokenBUSD, entryFee);\r\n        IERC20(tokenBUSD).transfer(address(this),tokensGetInBusd);\r\n        lotteryStructs[_lotteryId].participate(tokensGetInBusd,msg.sender);\r\n        uint256 stakingAmount=amount.sub(entryFee);\r\n        stakeInBUSD(stakingAmount, msg.sender);\r\n    } \r\n\r\n    modifier restricted() {\r\n        require(msg.sender == admin);\r\n        _;\r\n    }\r\n\r\n    event LotteryCreated(\r\n        uint256 lotteryId\r\n    );\r\n}\r\n",
  "sourcePath": "C:/Users/Avishek Bagchi/Downloads/LPLottery/LPLottery/contracts/LpLottery.sol",
  "compiler": {
    "name": "solc",
    "version": "0.8.0+commit.c7dfd78e.Emscripten.clang"
  },
  "schemaVersion": "3.4.1",
  "updatedAt": "2021-07-07T15:12:58.372Z",
  "devdoc": {
    "kind": "dev",
    "methods": {},
    "version": 1
  },
  "userdoc": {
    "kind": "user",
    "methods": {},
    "version": 1
  }
}