{
  "contractName": "LpLottery",
  "abi": [
    {
      "inputs": [
        {
          "internalType": "address",
          "name": "_routerAddres",
          "type": "address"
        },
        {
          "internalType": "address",
          "name": "_tokenSafeMars",
          "type": "address"
        },
        {
          "internalType": "address",
          "name": "_tokenBUSD",
          "type": "address"
        }
      ],
      "stateMutability": "nonpayable",
      "type": "constructor"
    },
    {
      "anonymous": false,
      "inputs": [
        {
          "indexed": false,
          "internalType": "uint256",
          "name": "lotteryId",
          "type": "uint256"
        }
      ],
      "name": "LotteryCreated",
      "type": "event"
    },
    {
      "inputs": [
        {
          "internalType": "uint256",
          "name": "",
          "type": "uint256"
        }
      ],
      "name": "lotteryStructs",
      "outputs": [
        {
          "internalType": "contract Lottery",
          "name": "",
          "type": "address"
        }
      ],
      "stateMutability": "view",
      "type": "function"
    },
    {
      "inputs": [
        {
          "internalType": "uint256",
          "name": "",
          "type": "uint256"
        }
      ],
      "name": "lotteryWinnerDeclared",
      "outputs": [
        {
          "internalType": "bool",
          "name": "",
          "type": "bool"
        }
      ],
      "stateMutability": "view",
      "type": "function"
    },
    {
      "inputs": [],
      "name": "router",
      "outputs": [
        {
          "internalType": "contract IPancakeRouter02",
          "name": "",
          "type": "address"
        }
      ],
      "stateMutability": "view",
      "type": "function"
    },
    {
      "inputs": [],
      "name": "tokenBUSD",
      "outputs": [
        {
          "internalType": "address",
          "name": "",
          "type": "address"
        }
      ],
      "stateMutability": "view",
      "type": "function"
    },
    {
      "inputs": [],
      "name": "tokenSafeMars",
      "outputs": [
        {
          "internalType": "address",
          "name": "",
          "type": "address"
        }
      ],
      "stateMutability": "view",
      "type": "function"
    },
    {
      "inputs": [
        {
          "internalType": "uint256",
          "name": "_prizeValue",
          "type": "uint256"
        }
      ],
      "name": "createContext",
      "outputs": [],
      "stateMutability": "nonpayable",
      "type": "function"
    },
    {
      "inputs": [
        {
          "internalType": "uint256",
          "name": "_lotteryId",
          "type": "uint256"
        }
      ],
      "name": "declareWinner",
      "outputs": [],
      "stateMutability": "nonpayable",
      "type": "function"
    },
    {
      "inputs": [
        {
          "internalType": "uint256",
          "name": "_lotteryId",
          "type": "uint256"
        }
      ],
      "name": "viewWinner",
      "outputs": [
        {
          "internalType": "address",
          "name": "",
          "type": "address"
        }
      ],
      "stateMutability": "view",
      "type": "function"
    },
    {
      "inputs": [
        {
          "internalType": "uint256",
          "name": "_lotteryId",
          "type": "uint256"
        },
        {
          "internalType": "uint256",
          "name": "amount",
          "type": "uint256"
        }
      ],
      "name": "participateInBusd",
      "outputs": [],
      "stateMutability": "nonpayable",
      "type": "function"
    },
    {
      "inputs": [
        {
          "internalType": "uint256",
          "name": "_lotteryId",
          "type": "uint256"
        },
        {
          "internalType": "uint256",
          "name": "amount",
          "type": "uint256"
        }
      ],
      "name": "participateInSafemars",
      "outputs": [],
      "stateMutability": "nonpayable",
      "type": "function"
    },
    {
      "inputs": [
        {
          "internalType": "uint256",
          "name": "_lotteryId",
          "type": "uint256"
        }
      ],
      "name": "exit",
      "outputs": [],
      "stateMutability": "nonpayable",
      "type": "function"
    }
  ],
  "bytecode": "0x60806040523480156200001157600080fd5b506040516200388538038062003885833981810160405281019062000037919062000169565b828282600160008190555082600160006101000a81548173ffffffffffffffffffffffffffffffffffffffff021916908373ffffffffffffffffffffffffffffffffffffffff16021790555081600260006101000a81548173ffffffffffffffffffffffffffffffffffffffff021916908373ffffffffffffffffffffffffffffffffffffffff16021790555080600360006101000a81548173ffffffffffffffffffffffffffffffffffffffff021916908373ffffffffffffffffffffffffffffffffffffffff16021790555050505033600560006101000a81548173ffffffffffffffffffffffffffffffffffffffff021916908373ffffffffffffffffffffffffffffffffffffffff1602179055505050506200020d565b6000815190506200016381620001f3565b92915050565b6000806000606084860312156200017f57600080fd5b60006200018f8682870162000152565b9350506020620001a28682870162000152565b9250506040620001b58682870162000152565b9150509250925092565b6000620001cc82620001d3565b9050919050565b600073ffffffffffffffffffffffffffffffffffffffff82169050919050565b620001fe81620001bf565b81146200020a57600080fd5b50565b613668806200021d6000396000f3fe60806040523480156200001157600080fd5b5060043610620000b75760003560e01c806368fc66f4116200007b57806368fc66f4146200018a5780637211ce8c14620001c05780637f8661a114620001e0578063bcbf42f71462000200578063e4905e9b1462000222578063f887ea40146200024257620000b7565b8062c2943c14620000bc5780631f197a7314620000dc578063213ef7f714620001125780635a502b96146200013457806362494eaa146200016a575b600080fd5b620000da6004803603810190620000d491906200210e565b62000264565b005b620000fa6004803603810190620000f491906200210e565b62000588565b604051620001099190620023ff565b60405180910390f35b6200011c62000646565b6040516200012b9190620023ff565b60405180910390f35b6200015260048036038101906200014c91906200210e565b6200066c565b604051620001619190620025be565b60405180910390f35b6200018860048036038101906200018291906200210e565b6200068c565b005b620001a86004803603810190620001a291906200210e565b620007f1565b604051620001b79190620025f8565b60405180910390f35b620001de6004803603810190620001d8919062002166565b62000824565b005b620001fe6004803603810190620001f891906200210e565b62000bc0565b005b6200020a62000c8a565b604051620002199190620023ff565b60405180910390f35b6200024060048036038101906200023a919062002166565b62000cb0565b005b6200024c62000ebf565b6040516200025b9190620025db565b60405180910390f35b600560009054906101000a900473ffffffffffffffffffffffffffffffffffffffff1673ffffffffffffffffffffffffffffffffffffffff163373ffffffffffffffffffffffffffffffffffffffff1614620002bf57600080fd5b6008600082815260200190815260200160002060009054906101000a900460ff161562000323576040517f08c379a00000000000000000000000000000000000000000000000000000000081526004016200031a9062002637565b60405180910390fd5b60016008600083815260200190815260200160002060006101000a81548160ff02191690831515021790555060006007600083815260200190815260200160002060009054906101000a900473ffffffffffffffffffffffffffffffffffffffff1673ffffffffffffffffffffffffffffffffffffffff166314034bd26040518163ffffffff1660e01b8152600401602060405180830381600087803b158015620003cd57600080fd5b505af1158015620003e2573d6000803e3d6000fd5b505050506040513d601f19601f82011682018060405250810190620004089190620020b6565b90506000620004cb6007600085815260200190815260200160002060009054906101000a900473ffffffffffffffffffffffffffffffffffffffff1673ffffffffffffffffffffffffffffffffffffffff1663b8760e6b6040518163ffffffff1660e01b815260040160206040518083038186803b1580156200048a57600080fd5b505afa1580156200049f573d6000803e3d6000fd5b505050506040513d601f19601f82011682018060405250810190620004c591906200213a565b62000ee5565b9050600260009054906101000a900473ffffffffffffffffffffffffffffffffffffffff1673ffffffffffffffffffffffffffffffffffffffff1663a9059cbb83836040518363ffffffff1660e01b81526004016200052c92919062002591565b602060405180830381600087803b1580156200054757600080fd5b505af11580156200055c573d6000803e3d6000fd5b505050506040513d601f19601f82011682018060405250810190620005829190620020e2565b50505050565b60006007600083815260200190815260200160002060009054906101000a900473ffffffffffffffffffffffffffffffffffffffff1673ffffffffffffffffffffffffffffffffffffffff16638e7ea5b26040518163ffffffff1660e01b815260040160206040518083038186803b1580156200060457600080fd5b505afa15801562000619573d6000803e3d6000fd5b505050506040513d601f19601f820116820180604052508101906200063f9190620020b6565b9050919050565b600360009054906101000a900473ffffffffffffffffffffffffffffffffffffffff1681565b60086020528060005260406000206000915054906101000a900460ff1681565b600560009054906101000a900473ffffffffffffffffffffffffffffffffffffffff1673ffffffffffffffffffffffffffffffffffffffff163373ffffffffffffffffffffffffffffffffffffffff1614620006e757600080fd5b8030600360009054906101000a900473ffffffffffffffffffffffffffffffffffffffff166040516200071a906200204c565b6200072893929190620026c5565b604051809103906000f08015801562000745573d6000803e3d6000fd5b5060076000600654815260200190815260200160002060006101000a81548173ffffffffffffffffffffffffffffffffffffffff021916908373ffffffffffffffffffffffffffffffffffffffff16021790555060066000815480929190620007ae906200298f565b91905055507f9e0023bebcc752baaa41057318405b5a6a8e9c6372b519717cfdf238e5caa795600654604051620007e691906200267b565b60405180910390a150565b60076020528060005260406000206000915054906101000a900473ffffffffffffffffffffffffffffffffffffffff1681565b600260005414156200086d576040517f08c379a0000000000000000000000000000000000000000000000000000000008152600401620008649062002659565b60405180910390fd5b60026000819055506000600260009054906101000a900473ffffffffffffffffffffffffffffffffffffffff1673ffffffffffffffffffffffffffffffffffffffff166370a08231306040518263ffffffff1660e01b8152600401620008d49190620023ff565b60206040518083038186803b158015620008ed57600080fd5b505afa15801562000902573d6000803e3d6000fd5b505050506040513d601f19601f820116820180604052508101906200092891906200213a565b9050600260009054906101000a900473ffffffffffffffffffffffffffffffffffffffff1673ffffffffffffffffffffffffffffffffffffffff166323b872dd3330856040518463ffffffff1660e01b81526004016200098b9392919062002449565b602060405180830381600087803b158015620009a657600080fd5b505af1158015620009bb573d6000803e3d6000fd5b505050506040513d601f19601f82011682018060405250810190620009e19190620020e2565b5062000aa781600260009054906101000a900473ffffffffffffffffffffffffffffffffffffffff1673ffffffffffffffffffffffffffffffffffffffff166370a08231306040518263ffffffff1660e01b815260040162000a449190620023ff565b60206040518083038186803b15801562000a5d57600080fd5b505afa15801562000a72573d6000803e3d6000fd5b505050506040513d601f19601f8201168201806040525081019062000a9891906200213a565b62000f3f90919063ffffffff16565b9150600062000ad6606462000ac760048662000f5790919063ffffffff16565b62000f6f90919063ffffffff16565b9050600062000ae58262000f87565b90506007600086815260200190815260200160002060009054906101000a900473ffffffffffffffffffffffffffffffffffffffff1673ffffffffffffffffffffffffffffffffffffffff166313b1864082336040518363ffffffff1660e01b815260040162000b5792919062002698565b600060405180830381600087803b15801562000b7257600080fd5b505af115801562000b87573d6000803e3d6000fd5b50505050600062000ba2838662000f3f90919063ffffffff16565b905062000bb0813362000fe1565b5050505060016000819055505050565b6002600054141562000c09576040517f08c379a000000000000000000000000000000000000000000000000000000000815260040162000c009062002659565b60405180910390fd5b60026000819055506008600082815260200190815260200160002060009054906101000a900460ff1662000c74576040517f08c379a000000000000000000000000000000000000000000000000000000000815260040162000c6b9062002615565b60405180910390fd5b62000c7f336200107d565b600160008190555050565b600260009054906101000a900473ffffffffffffffffffffffffffffffffffffffff1681565b6002600054141562000cf9576040517f08c379a000000000000000000000000000000000000000000000000000000000815260040162000cf09062002659565b60405180910390fd5b6002600081905550600360009054906101000a900473ffffffffffffffffffffffffffffffffffffffff1673ffffffffffffffffffffffffffffffffffffffff166323b872dd3330846040518463ffffffff1660e01b815260040162000d629392919062002449565b602060405180830381600087803b15801562000d7d57600080fd5b505af115801562000d92573d6000803e3d6000fd5b505050506040513d601f19601f8201168201806040525081019062000db89190620020e2565b50600062000de6606462000dd760048562000f5790919063ffffffff16565b62000f6f90919063ffffffff16565b90506007600084815260200190815260200160002060009054906101000a900473ffffffffffffffffffffffffffffffffffffffff1673ffffffffffffffffffffffffffffffffffffffff166313b1864082336040518363ffffffff1660e01b815260040162000e5892919062002698565b600060405180830381600087803b15801562000e7357600080fd5b505af115801562000e88573d6000803e3d6000fd5b50505050600062000ea3828462000f3f90919063ffffffff16565b905062000eb181336200121d565b505060016000819055505050565b600160009054906101000a900473ffffffffffffffffffffffffffffffffffffffff1681565b600062000f38600360009054906101000a900473ffffffffffffffffffffffffffffffffffffffff16600260009054906101000a900473ffffffffffffffffffffffffffffffffffffffff1684620012b9565b9050919050565b6000818362000f4f9190620028a6565b905092915050565b6000818362000f67919062002845565b905092915050565b6000818362000f7f91906200280d565b905092915050565b600062000fda600260009054906101000a900473ffffffffffffffffffffffffffffffffffffffff16600360009054906101000a900473ffffffffffffffffffffffffffffffffffffffff1684620012b9565b9050919050565b600062000ff960028462000f6f90919063ffffffff16565b9050600062001012828562000f3f90919063ffffffff16565b9050600062001067600260009054906101000a900473ffffffffffffffffffffffffffffffffffffffff16600360009054906101000a900473ffffffffffffffffffffffffffffffffffffffff1684620012b9565b905062001076838286620016c2565b5050505050565b6000600460008373ffffffffffffffffffffffffffffffffffffffff1673ffffffffffffffffffffffffffffffffffffffff1681526020019081526020016000209050600080620010d2836002015462001b48565b91509150600062001129600360009054906101000a900473ffffffffffffffffffffffffffffffffffffffff16600260009054906101000a900473ffffffffffffffffffffffffffffffffffffffff1684620012b9565b90506000846001018190555060008460000181905550600084600201819055506200115e838262001eaa90919063ffffffff16565b9050600260009054906101000a900473ffffffffffffffffffffffffffffffffffffffff1673ffffffffffffffffffffffffffffffffffffffff1663a9059cbb86836040518363ffffffff1660e01b8152600401620011bf92919062002591565b602060405180830381600087803b158015620011da57600080fd5b505af1158015620011ef573d6000803e3d6000fd5b505050506040513d601f19601f82011682018060405250810190620012159190620020e2565b505050505050565b60006200123560028462000f6f90919063ffffffff16565b905060006200124e828562000f3f90919063ffffffff16565b90506000620012a3600360009054906101000a900473ffffffffffffffffffffffffffffffffffffffff16600260009054906101000a900473ffffffffffffffffffffffffffffffffffffffff1684620012b9565b9050620012b2818486620016c2565b5050505050565b60008373ffffffffffffffffffffffffffffffffffffffff1663095ea7b3600160009054906101000a900473ffffffffffffffffffffffffffffffffffffffff16846040518363ffffffff1660e01b81526004016200131a92919062002591565b602060405180830381600087803b1580156200133557600080fd5b505af11580156200134a573d6000803e3d6000fd5b505050506040513d601f19601f82011682018060405250810190620013709190620020e2565b506000600267ffffffffffffffff811115620013b5577f4e487b7100000000000000000000000000000000000000000000000000000000600052604160045260246000fd5b604051908082528060200260200182016040528015620013e45781602001602082028036833780820191505090505b509050848160008151811062001423577f4e487b7100000000000000000000000000000000000000000000000000000000600052603260045260246000fd5b602002602001019073ffffffffffffffffffffffffffffffffffffffff16908173ffffffffffffffffffffffffffffffffffffffff1681525050838160018151811062001499577f4e487b7100000000000000000000000000000000000000000000000000000000600052603260045260246000fd5b602002602001019073ffffffffffffffffffffffffffffffffffffffff16908173ffffffffffffffffffffffffffffffffffffffff168152505060008473ffffffffffffffffffffffffffffffffffffffff166370a08231306040518263ffffffff1660e01b8152600401620015109190620023ff565b60206040518083038186803b1580156200152957600080fd5b505afa1580156200153e573d6000803e3d6000fd5b505050506040513d601f19601f820116820180604052508101906200156491906200213a565b9050600160009054906101000a900473ffffffffffffffffffffffffffffffffffffffff1673ffffffffffffffffffffffffffffffffffffffff16635c11d7958560008530603c42620015b89190620027b0565b6040518663ffffffff1660e01b8152600401620015da95949392919062002702565b600060405180830381600087803b158015620015f557600080fd5b505af11580156200160a573d6000803e3d6000fd5b5050505060008573ffffffffffffffffffffffffffffffffffffffff166370a08231306040518263ffffffff1660e01b81526004016200164b9190620023ff565b60206040518083038186803b1580156200166457600080fd5b505afa15801562001679573d6000803e3d6000fd5b505050506040513d601f19601f820116820180604052508101906200169f91906200213a565b9050620016b6828262000f3f90919063ffffffff16565b93505050509392505050565b600260009054906101000a900473ffffffffffffffffffffffffffffffffffffffff1673ffffffffffffffffffffffffffffffffffffffff1663095ea7b3600160009054906101000a900473ffffffffffffffffffffffffffffffffffffffff16856040518363ffffffff1660e01b81526004016200174392919062002591565b602060405180830381600087803b1580156200175e57600080fd5b505af115801562001773573d6000803e3d6000fd5b505050506040513d601f19601f82011682018060405250810190620017999190620020e2565b50600360009054906101000a900473ffffffffffffffffffffffffffffffffffffffff1673ffffffffffffffffffffffffffffffffffffffff1663095ea7b3600160009054906101000a900473ffffffffffffffffffffffffffffffffffffffff16846040518363ffffffff1660e01b81526004016200181b92919062002591565b602060405180830381600087803b1580156200183657600080fd5b505af11580156200184b573d6000803e3d6000fd5b505050506040513d601f19601f82011682018060405250810190620018719190620020e2565b5060006200187e62001ec2565b73ffffffffffffffffffffffffffffffffffffffff166370a08231306040518263ffffffff1660e01b8152600401620018b89190620023ff565b60206040518083038186803b158015620018d157600080fd5b505afa158015620018e6573d6000803e3d6000fd5b505050506040513d601f19601f820116820180604052508101906200190c91906200213a565b9050600160009054906101000a900473ffffffffffffffffffffffffffffffffffffffff1673ffffffffffffffffffffffffffffffffffffffff1663e8e33700600260009054906101000a900473ffffffffffffffffffffffffffffffffffffffff16600360009054906101000a900473ffffffffffffffffffffffffffffffffffffffff1687876000803061016842620019a89190620027b0565b6040518963ffffffff1660e01b8152600401620019cd98979695949392919062002503565b606060405180830381600087803b158015620019e857600080fd5b505af1158015620019fd573d6000803e3d6000fd5b505050506040513d601f19601f8201168201806040525081019062001a239190620021e8565b505050600062001a3262001ec2565b73ffffffffffffffffffffffffffffffffffffffff166370a08231306040518263ffffffff1660e01b815260040162001a6c9190620023ff565b60206040518083038186803b15801562001a8557600080fd5b505afa15801562001a9a573d6000803e3d6000fd5b505050506040513d601f19601f8201168201806040525081019062001ac091906200213a565b9050600062001ad9838362000f3f90919063ffffffff16565b90506000600460008673ffffffffffffffffffffffffffffffffffffffff1673ffffffffffffffffffffffffffffffffffffffff168152602001908152602001600020905062001b3782826002015462001eaa90919063ffffffff16565b816002018190555050505050505050565b60008062001b5562001ec2565b73ffffffffffffffffffffffffffffffffffffffff1663095ea7b3600160009054906101000a900473ffffffffffffffffffffffffffffffffffffffff16856040518363ffffffff1660e01b815260040162001bb392919062002591565b602060405180830381600087803b15801562001bce57600080fd5b505af115801562001be3573d6000803e3d6000fd5b505050506040513d601f19601f8201168201806040525081019062001c099190620020e2565b506000600260009054906101000a900473ffffffffffffffffffffffffffffffffffffffff1673ffffffffffffffffffffffffffffffffffffffff166370a08231306040518263ffffffff1660e01b815260040162001c699190620023ff565b60206040518083038186803b15801562001c8257600080fd5b505afa15801562001c97573d6000803e3d6000fd5b505050506040513d601f19601f8201168201806040525081019062001cbd91906200213a565b9050600160009054906101000a900473ffffffffffffffffffffffffffffffffffffffff1673ffffffffffffffffffffffffffffffffffffffff1663baa2abde600260009054906101000a900473ffffffffffffffffffffffffffffffffffffffff16600360009054906101000a900473ffffffffffffffffffffffffffffffffffffffff1687600080306101684262001d589190620027b0565b6040518863ffffffff1660e01b815260040162001d7c979695949392919062002486565b6040805180830381600087803b15801562001d9657600080fd5b505af115801562001dab573d6000803e3d6000fd5b505050506040513d601f19601f8201168201806040525081019062001dd19190620021a7565b9050809250506000600260009054906101000a900473ffffffffffffffffffffffffffffffffffffffff1673ffffffffffffffffffffffffffffffffffffffff166370a08231306040518263ffffffff1660e01b815260040162001e369190620023ff565b60206040518083038186803b15801562001e4f57600080fd5b505afa15801562001e64573d6000803e3d6000fd5b505050506040513d601f19601f8201168201806040525081019062001e8a91906200213a565b905062001ea1828262000f3f90919063ffffffff16565b93505050915091565b6000818362001eba9190620027b0565b905092915050565b600080600160009054906101000a900473ffffffffffffffffffffffffffffffffffffffff1673ffffffffffffffffffffffffffffffffffffffff1663c45a01556040518163ffffffff1660e01b815260040160206040518083038186803b15801562001f2e57600080fd5b505afa15801562001f43573d6000803e3d6000fd5b505050506040513d601f19601f8201168201806040525081019062001f699190620020b6565b905060008173ffffffffffffffffffffffffffffffffffffffff1663e6a43905600260009054906101000a900473ffffffffffffffffffffffffffffffffffffffff16600360009054906101000a900473ffffffffffffffffffffffffffffffffffffffff166040518363ffffffff1660e01b815260040162001fee9291906200241c565b60206040518083038186803b1580156200200757600080fd5b505afa1580156200201c573d6000803e3d6000fd5b505050506040513d601f19601f82011682018060405250810190620020429190620020b6565b9050809250505090565b610ba98062002a8a83390190565b6000815190506200206b8162002a3b565b92915050565b600081519050620020828162002a55565b92915050565b600081359050620020998162002a6f565b92915050565b600081519050620020b08162002a6f565b92915050565b600060208284031215620020c957600080fd5b6000620020d9848285016200205a565b91505092915050565b600060208284031215620020f557600080fd5b6000620021058482850162002071565b91505092915050565b6000602082840312156200212157600080fd5b6000620021318482850162002088565b91505092915050565b6000602082840312156200214d57600080fd5b60006200215d848285016200209f565b91505092915050565b600080604083850312156200217a57600080fd5b60006200218a8582860162002088565b92505060206200219d8582860162002088565b9150509250929050565b60008060408385031215620021bb57600080fd5b6000620021cb858286016200209f565b9250506020620021de858286016200209f565b9150509250929050565b600080600060608486031215620021fe57600080fd5b60006200220e868287016200209f565b935050602062002221868287016200209f565b925050604062002234868287016200209f565b9150509250925092565b60006200224c838362002258565b60208301905092915050565b6200226381620028e1565b82525050565b6200227481620028e1565b82525050565b6000620022878262002776565b6200229381856200278e565b9350620022a08362002766565b8060005b83811015620022d7578151620022bb88826200223e565b9750620022c88362002781565b925050600181019050620022a4565b5085935050505092915050565b620022ef81620028f5565b82525050565b62002300816200292b565b82525050565b620023118162002953565b82525050565b62002322816200297b565b82525050565b6000620023376013836200279f565b91507f57696e6e6572206e6f74206465636c61726564000000000000000000000000006000830152602082019050919050565b6000620023796017836200279f565b91507f57696e6e657220616c7265616479206465636c617265640000000000000000006000830152602082019050919050565b6000620023bb601f836200279f565b91507f5265656e7472616e637947756172643a207265656e7472616e742063616c6c006000830152602082019050919050565b620023f98162002921565b82525050565b600060208201905062002416600083018462002269565b92915050565b600060408201905062002433600083018562002269565b62002442602083018462002269565b9392505050565b600060608201905062002460600083018662002269565b6200246f602083018562002269565b6200247e6040830184620023ee565b949350505050565b600060e0820190506200249d600083018a62002269565b620024ac602083018962002269565b620024bb6040830188620023ee565b620024ca606083018762002317565b620024d9608083018662002317565b620024e860a083018562002269565b620024f760c0830184620023ee565b98975050505050505050565b6000610100820190506200251b600083018b62002269565b6200252a602083018a62002269565b620025396040830189620023ee565b620025486060830188620023ee565b62002557608083018762002317565b6200256660a083018662002317565b6200257560c083018562002269565b6200258460e0830184620023ee565b9998505050505050505050565b6000604082019050620025a8600083018562002269565b620025b76020830184620023ee565b9392505050565b6000602082019050620025d56000830184620022e4565b92915050565b6000602082019050620025f26000830184620022f5565b92915050565b60006020820190506200260f600083018462002306565b92915050565b60006020820190508181036000830152620026308162002328565b9050919050565b6000602082019050818103600083015262002652816200236a565b9050919050565b600060208201905081810360008301526200267481620023ac565b9050919050565b6000602082019050620026926000830184620023ee565b92915050565b6000604082019050620026af6000830185620023ee565b620026be602083018462002269565b9392505050565b6000606082019050620026dc6000830186620023ee565b620026eb602083018562002269565b620026fa604083018462002269565b949350505050565b600060a082019050620027196000830188620023ee565b62002728602083018762002317565b81810360408301526200273c81866200227a565b90506200274d606083018562002269565b6200275c6080830184620023ee565b9695505050505050565b6000819050602082019050919050565b600081519050919050565b6000602082019050919050565b600082825260208201905092915050565b600082825260208201905092915050565b6000620027bd8262002921565b9150620027ca8362002921565b9250827fffffffffffffffffffffffffffffffffffffffffffffffffffffffffffffffff03821115620028025762002801620029dd565b5b828201905092915050565b60006200281a8262002921565b9150620028278362002921565b9250826200283a576200283962002a0c565b5b828204905092915050565b6000620028528262002921565b91506200285f8362002921565b9250817fffffffffffffffffffffffffffffffffffffffffffffffffffffffffffffffff04831182151516156200289b576200289a620029dd565b5b828202905092915050565b6000620028b38262002921565b9150620028c08362002921565b925082821015620028d657620028d5620029dd565b5b828203905092915050565b6000620028ee8262002901565b9050919050565b60008115159050919050565b600073ffffffffffffffffffffffffffffffffffffffff82169050919050565b6000819050919050565b600062002938826200293f565b9050919050565b60006200294c8262002901565b9050919050565b6000620029608262002967565b9050919050565b6000620029748262002901565b9050919050565b6000620029888262002921565b9050919050565b60006200299c8262002921565b91507fffffffffffffffffffffffffffffffffffffffffffffffffffffffffffffffff821415620029d257620029d1620029dd565b5b600182019050919050565b7f4e487b7100000000000000000000000000000000000000000000000000000000600052601160045260246000fd5b7f4e487b7100000000000000000000000000000000000000000000000000000000600052601260045260246000fd5b62002a4681620028e1565b811462002a5257600080fd5b50565b62002a6081620028f5565b811462002a6c57600080fd5b50565b62002a7a8162002921565b811462002a8657600080fd5b5056fe60806040523480156200001157600080fd5b5060405162000ba938038062000ba9833981810160405281019062000037919062000152565b8260008190555062000060670de0b6b3a7640000846200010c60201b620003f31790919060201c565b60028190555081600160006101000a81548173ffffffffffffffffffffffffffffffffffffffff021916908373ffffffffffffffffffffffffffffffffffffffff1602179055506001600460006101000a81548160ff02191690831515021790555080600460016101000a81548173ffffffffffffffffffffffffffffffffffffffff021916908373ffffffffffffffffffffffffffffffffffffffff16021790555050505062000281565b600081836200011c9190620001a8565b905092915050565b60008151905062000135816200024d565b92915050565b6000815190506200014c8162000267565b92915050565b6000806000606084860312156200016857600080fd5b600062000178868287016200013b565b93505060206200018b8682870162000124565b92505060406200019e8682870162000124565b9150509250925092565b6000620001b58262000214565b9150620001c28362000214565b925082620001d557620001d46200021e565b5b828204905092915050565b6000620001ed82620001f4565b9050919050565b600073ffffffffffffffffffffffffffffffffffffffff82169050919050565b6000819050919050565b7f4e487b7100000000000000000000000000000000000000000000000000000000600052601260045260246000fd5b6200025881620001e0565b81146200026457600080fd5b50565b620002728162000214565b81146200027e57600080fd5b50565b61091880620002916000396000f3fe608060405234801561001057600080fd5b506004361061004c5760003560e01c806313b186401461005157806314034bd21461006d5780638e7ea5b21461008b578063b8760e6b146100a9575b600080fd5b61006b60048036038101906100669190610496565b6100c7565b005b6100756102a2565b604051610082919061066a565b60405180910390f35b610093610375565b6040516100a0919061066a565b60405180910390f35b6100b16103ea565b6040516100be9190610705565b60405180910390f35b6000600254141561010d576040517f08c379a000000000000000000000000000000000000000000000000000000000815260040161010490610685565b60405180910390fd5b600460009054906101000a900460ff1661015c576040517f08c379a0000000000000000000000000000000000000000000000000000000008152600401610153906106a5565b60405180910390fd5b6000610179670de0b6b3a7640000846103f390919063ffffffff16565b90508060025410156101c0576040517f08c379a00000000000000000000000000000000000000000000000000000000081526004016101b7906106c5565b60405180910390fd5b60005b8181101561024a578260056000600354815260200190815260200160002060006101000a81548173ffffffffffffffffffffffffffffffffffffffff021916908373ffffffffffffffffffffffffffffffffffffffff16021790555060036000815480929190610232906107d2565b91905055508080610242906107d2565b9150506101c3565b506102608160025461040990919063ffffffff16565b6002819055507f609ccaad0d5a048d24b2ea393937b393e3ad528ec64eca22004023379ea26f4282604051610295919061066a565b60405180910390a1505050565b6000600160009054906101000a900473ffffffffffffffffffffffffffffffffffffffff1673ffffffffffffffffffffffffffffffffffffffff163373ffffffffffffffffffffffffffffffffffffffff16146102fe57600080fd5b600460009054906101000a900460ff1661034d576040517f08c379a0000000000000000000000000000000000000000000000000000000008152600401610344906106e5565b60405180910390fd5b6000600460006101000a81548160ff021916908315150217905550610370610375565b905090565b6000806103ae610398670de0b6b3a76400006000546103f390919063ffffffff16565b6103a061041f565b61045690919063ffffffff16565b90506005600082815260200190815260200160002060009054906101000a900473ffffffffffffffffffffffffffffffffffffffff1691505090565b60008054905090565b600081836104019190610731565b905092915050565b600081836104179190610762565b905092915050565b600044426000546040516020016104389392919061062d565b6040516020818303038152906040528051906020012060001c905090565b600081836104649190610825565b905092915050565b60008135905061047b816108b4565b92915050565b600081359050610490816108cb565b92915050565b600080604083850312156104a957600080fd5b60006104b785828601610481565b92505060206104c88582860161046c565b9150509250929050565b6104db81610796565b82525050565b60006104ee600f83610720565b91507f636f6e746578742069732066756c6c00000000000000000000000000000000006000830152602082019050919050565b600061052e601d83610720565b91507f636f6e74657874206973206e6f742061637469766520616e796d6f72650000006000830152602082019050919050565b600061056e603283610720565b91507f656e74726565206665652073686f756c6420626520736d616c6c65722074686160008301527f6e20656e747269657320726571756972656400000000000000000000000000006020830152604082019050919050565b60006105d4601d83610720565b91507f436f6e74657874206973206e6f742061637469766520616e796d6f72650000006000830152602082019050919050565b610610816107c8565b82525050565b610627610622826107c8565b61081b565b82525050565b60006106398286610616565b6020820191506106498285610616565b6020820191506106598284610616565b602082019150819050949350505050565b600060208201905061067f60008301846104d2565b92915050565b6000602082019050818103600083015261069e816104e1565b9050919050565b600060208201905081810360008301526106be81610521565b9050919050565b600060208201905081810360008301526106de81610561565b9050919050565b600060208201905081810360008301526106fe816105c7565b9050919050565b600060208201905061071a6000830184610607565b92915050565b600082825260208201905092915050565b600061073c826107c8565b9150610747836107c8565b92508261075757610756610885565b5b828204905092915050565b600061076d826107c8565b9150610778836107c8565b92508282101561078b5761078a610856565b5b828203905092915050565b60006107a1826107a8565b9050919050565b600073ffffffffffffffffffffffffffffffffffffffff82169050919050565b6000819050919050565b60006107dd826107c8565b91507fffffffffffffffffffffffffffffffffffffffffffffffffffffffffffffffff8214156108105761080f610856565b5b600182019050919050565b6000819050919050565b6000610830826107c8565b915061083b836107c8565b92508261084b5761084a610885565b5b828206905092915050565b7f4e487b7100000000000000000000000000000000000000000000000000000000600052601160045260246000fd5b7f4e487b7100000000000000000000000000000000000000000000000000000000600052601260045260246000fd5b6108bd81610796565b81146108c857600080fd5b50565b6108d4816107c8565b81146108df57600080fd5b5056fea2646970667358221220781749b566aacfbe91418f67df1cbc09a9a9dbd6e05c8b66f2e6264ba54e82cb64736f6c63430008000033a26469706673582212207c021f6ed3dabebe5a7eee7d4d1ab00fdb49403e0be6bdba6885936e1e2d6a6364736f6c63430008000033",
  "immutableReferences": {},
  "source": "// SPDX-License-Identifier: MIT\r\npragma solidity ^0.8.0;\r\n\r\nimport \"./PancakeClass.sol\";\r\nimport \"./Lottery.sol\";\r\n\r\ncontract LpLottery is PancakeClass {\r\n    address private admin;\r\n    uint256 private lotteryId;\r\n    mapping(uint256 => Lottery) public lotteryStructs;\r\n    mapping(uint256 => bool) public lotteryWinnerDeclared;\r\n    using SafeMath for uint256;\r\n\r\n    constructor(\r\n        address _routerAddres,\r\n        address _tokenSafeMars,\r\n        address _tokenBUSD\r\n    ) PancakeClass(_routerAddres, _tokenSafeMars, _tokenBUSD) {\r\n        admin = msg.sender;\r\n    }\r\n    function createContext(uint256 _prizeValue) public restricted {\r\n       lotteryStructs[lotteryId] = new Lottery(_prizeValue, address(this), tokenBUSD);\r\n       lotteryId++;\r\n       emit LotteryCreated(lotteryId);\r\n    }\r\n\r\n    function declareWinner(uint256 _lotteryId) public restricted {\r\n        require(!lotteryWinnerDeclared[_lotteryId], \"Winner already declared\");\r\n        lotteryWinnerDeclared[_lotteryId] = true;\r\n        address winner = lotteryStructs[_lotteryId].declareWinner();\r\n        uint256 tokensGetInSafemars = convertBUSDToSafeMars(lotteryStructs[_lotteryId].getPrizeValue());\r\n        IERC20(tokenSafeMars).transfer(winner, tokensGetInSafemars);\r\n    }\r\n\r\n    function viewWinner(uint256 _lotteryId) public view returns(address) {\r\n        return lotteryStructs[_lotteryId].getWinner();\r\n    }\r\n\r\n    function participateInBusd(uint256 _lotteryId, uint256 amount) public nonReentrant {\r\n        IERC20(tokenBUSD).transferFrom(msg.sender, address(this), amount);\r\n\r\n        uint256 entryFee = amount.mul(4).div(100);\r\n        lotteryStructs[_lotteryId].participate(entryFee, msg.sender);\r\n        uint256 stakingAmount = amount.sub(entryFee);\r\n        stakeInBUSD(stakingAmount, msg.sender);\r\n    }\r\n\r\n    function participateInSafemars(uint256 _lotteryId, uint256 amount) public nonReentrant {\r\n        uint256 initBalance = IERC20(tokenSafeMars).balanceOf(address(this));\r\n        IERC20(tokenSafeMars).transferFrom(msg.sender, address(this), amount);\r\n        amount = IERC20(tokenSafeMars).balanceOf(address(this)).sub(initBalance);\r\n        \r\n        uint256 entryFee = amount.mul(4).div(100);\r\n        uint256 tokensGetInBusd = convertSafeMarsToBUSD(entryFee);\r\n        lotteryStructs[_lotteryId].participate(tokensGetInBusd, msg.sender);\r\n\r\n        uint256 stakingAmount = amount.sub(entryFee);\r\n        stakeInSafeMars(stakingAmount, msg.sender);\r\n    }\r\n\r\n    function exit(uint256 _lotteryId) public nonReentrant {\r\n        require(lotteryWinnerDeclared[_lotteryId], \"Winner not declared\");\r\n        unstakeAllToSafeMars(msg.sender);\r\n    }\r\n\r\n    modifier restricted() {\r\n        require(msg.sender == admin);\r\n        _;\r\n    }\r\n\r\n    event LotteryCreated(\r\n        uint256 lotteryId\r\n    );\r\n}\r\n",
  "sourcePath": "C:/Users/sudip/Desktop/RealProjects/LPLottery/contracts/LpLottery.sol",
  "compiler": {
    "name": "solc",
    "version": "0.8.0+commit.c7dfd78e.Emscripten.clang"
  },
  "schemaVersion": "3.3.4",
  "updatedAt": "2021-07-12T05:27:48.733Z",
  "devdoc": {
    "kind": "dev",
    "methods": {},
    "version": 1
  },
  "userdoc": {
    "kind": "user",
    "methods": {},
    "version": 1
  }
}