{
  "contractName": "LpLottery",
  "abi": [
    {
      "inputs": [
        {
          "internalType": "address",
          "name": "_routerAddres",
          "type": "address"
        },
        {
          "internalType": "address",
          "name": "_tokenSafeMars",
          "type": "address"
        },
        {
          "internalType": "address",
          "name": "_tokenBUSD",
          "type": "address"
        }
      ],
      "stateMutability": "nonpayable",
      "type": "constructor"
    },
    {
      "anonymous": false,
      "inputs": [
        {
          "indexed": false,
          "internalType": "uint256",
          "name": "lotteryId",
          "type": "uint256"
        }
      ],
      "name": "LotteryCreated",
      "type": "event"
    },
    {
      "inputs": [
        {
          "internalType": "uint256",
          "name": "",
          "type": "uint256"
        }
      ],
      "name": "lotteryStructs",
      "outputs": [
        {
          "internalType": "contract Lottery",
          "name": "",
          "type": "address"
        }
      ],
      "stateMutability": "view",
      "type": "function"
    },
    {
      "inputs": [
        {
          "internalType": "uint256",
          "name": "",
          "type": "uint256"
        }
      ],
      "name": "lotteryWinnerDeclared",
      "outputs": [
        {
          "internalType": "bool",
          "name": "",
          "type": "bool"
        }
      ],
      "stateMutability": "view",
      "type": "function"
    },
    {
      "inputs": [],
      "name": "router",
      "outputs": [
        {
          "internalType": "contract IPancakeRouter02",
          "name": "",
          "type": "address"
        }
      ],
      "stateMutability": "view",
      "type": "function"
    },
    {
      "inputs": [],
      "name": "tokenBUSD",
      "outputs": [
        {
          "internalType": "address",
          "name": "",
          "type": "address"
        }
      ],
      "stateMutability": "view",
      "type": "function"
    },
    {
      "inputs": [],
      "name": "tokenSafeMars",
      "outputs": [
        {
          "internalType": "address",
          "name": "",
          "type": "address"
        }
      ],
      "stateMutability": "view",
      "type": "function"
    },
    {
      "inputs": [
        {
          "internalType": "uint256",
          "name": "_prizeValue",
          "type": "uint256"
        }
      ],
      "name": "createContext",
      "outputs": [],
      "stateMutability": "nonpayable",
      "type": "function"
    },
    {
      "inputs": [
        {
          "internalType": "uint256",
          "name": "_lotteryId",
          "type": "uint256"
        }
      ],
      "name": "declareWinner",
      "outputs": [],
      "stateMutability": "nonpayable",
      "type": "function"
    },
    {
      "inputs": [
        {
          "internalType": "uint256",
          "name": "_lotteryId",
          "type": "uint256"
        }
      ],
      "name": "viewWinner",
      "outputs": [
        {
          "internalType": "address",
          "name": "",
          "type": "address"
        }
      ],
      "stateMutability": "view",
      "type": "function"
    },
    {
      "inputs": [
        {
          "internalType": "uint256",
          "name": "_lotteryId",
          "type": "uint256"
        },
        {
          "internalType": "uint256",
          "name": "amount",
          "type": "uint256"
        }
      ],
      "name": "participateInBusd",
      "outputs": [],
      "stateMutability": "nonpayable",
      "type": "function"
    },
    {
      "inputs": [
        {
          "internalType": "uint256",
          "name": "_lotteryId",
          "type": "uint256"
        },
        {
          "internalType": "uint256",
          "name": "amount",
          "type": "uint256"
        }
      ],
      "name": "participateInSafemars",
      "outputs": [],
      "stateMutability": "nonpayable",
      "type": "function"
    },
    {
      "inputs": [
        {
          "internalType": "uint256",
          "name": "_lotteryId",
          "type": "uint256"
        }
      ],
      "name": "exit",
      "outputs": [],
      "stateMutability": "nonpayable",
      "type": "function"
    }
  ],
  "bytecode": "0x60806040523480156200001157600080fd5b50604051620037d3380380620037d3833981810160405281019062000037919062000169565b828282600160008190555082600160006101000a81548173ffffffffffffffffffffffffffffffffffffffff021916908373ffffffffffffffffffffffffffffffffffffffff16021790555081600260006101000a81548173ffffffffffffffffffffffffffffffffffffffff021916908373ffffffffffffffffffffffffffffffffffffffff16021790555080600360006101000a81548173ffffffffffffffffffffffffffffffffffffffff021916908373ffffffffffffffffffffffffffffffffffffffff16021790555050505033600560006101000a81548173ffffffffffffffffffffffffffffffffffffffff021916908373ffffffffffffffffffffffffffffffffffffffff1602179055505050506200020d565b6000815190506200016381620001f3565b92915050565b6000806000606084860312156200017f57600080fd5b60006200018f8682870162000152565b9350506020620001a28682870162000152565b9250506040620001b58682870162000152565b9150509250925092565b6000620001cc82620001d3565b9050919050565b600073ffffffffffffffffffffffffffffffffffffffff82169050919050565b620001fe81620001bf565b81146200020a57600080fd5b50565b6135b6806200021d6000396000f3fe60806040523480156200001157600080fd5b5060043610620000b75760003560e01c806368fc66f4116200007b57806368fc66f4146200018a5780637211ce8c14620001c05780637f8661a114620001e0578063bcbf42f71462000200578063e4905e9b1462000222578063f887ea40146200024257620000b7565b8062c2943c14620000bc5780631f197a7314620000dc578063213ef7f714620001125780635a502b96146200013457806362494eaa146200016a575b600080fd5b620000da6004803603810190620000d491906200205c565b62000264565b005b620000fa6004803603810190620000f491906200205c565b62000588565b6040516200010991906200234d565b60405180910390f35b6200011c62000646565b6040516200012b91906200234d565b60405180910390f35b6200015260048036038101906200014c91906200205c565b6200066c565b6040516200016191906200250c565b60405180910390f35b6200018860048036038101906200018291906200205c565b6200068c565b005b620001a86004803603810190620001a291906200205c565b620007f1565b604051620001b7919062002546565b60405180910390f35b620001de6004803603810190620001d89190620020b4565b62000824565b005b620001fe6004803603810190620001f891906200205c565b62000bc0565b005b6200020a62000c31565b6040516200021991906200234d565b60405180910390f35b6200024060048036038101906200023a9190620020b4565b62000c57565b005b6200024c62000e0d565b6040516200025b919062002529565b60405180910390f35b600560009054906101000a900473ffffffffffffffffffffffffffffffffffffffff1673ffffffffffffffffffffffffffffffffffffffff163373ffffffffffffffffffffffffffffffffffffffff1614620002bf57600080fd5b6008600082815260200190815260200160002060009054906101000a900460ff161562000323576040517f08c379a00000000000000000000000000000000000000000000000000000000081526004016200031a9062002585565b60405180910390fd5b60016008600083815260200190815260200160002060006101000a81548160ff02191690831515021790555060006007600083815260200190815260200160002060009054906101000a900473ffffffffffffffffffffffffffffffffffffffff1673ffffffffffffffffffffffffffffffffffffffff166314034bd26040518163ffffffff1660e01b8152600401602060405180830381600087803b158015620003cd57600080fd5b505af1158015620003e2573d6000803e3d6000fd5b505050506040513d601f19601f8201168201806040525081019062000408919062002004565b90506000620004cb6007600085815260200190815260200160002060009054906101000a900473ffffffffffffffffffffffffffffffffffffffff1673ffffffffffffffffffffffffffffffffffffffff1663b8760e6b6040518163ffffffff1660e01b815260040160206040518083038186803b1580156200048a57600080fd5b505afa1580156200049f573d6000803e3d6000fd5b505050506040513d601f19601f82011682018060405250810190620004c5919062002088565b62000e33565b9050600260009054906101000a900473ffffffffffffffffffffffffffffffffffffffff1673ffffffffffffffffffffffffffffffffffffffff1663a9059cbb83836040518363ffffffff1660e01b81526004016200052c929190620024df565b602060405180830381600087803b1580156200054757600080fd5b505af11580156200055c573d6000803e3d6000fd5b505050506040513d601f19601f8201168201806040525081019062000582919062002030565b50505050565b60006007600083815260200190815260200160002060009054906101000a900473ffffffffffffffffffffffffffffffffffffffff1673ffffffffffffffffffffffffffffffffffffffff16638e7ea5b26040518163ffffffff1660e01b815260040160206040518083038186803b1580156200060457600080fd5b505afa15801562000619573d6000803e3d6000fd5b505050506040513d601f19601f820116820180604052508101906200063f919062002004565b9050919050565b600360009054906101000a900473ffffffffffffffffffffffffffffffffffffffff1681565b60086020528060005260406000206000915054906101000a900460ff1681565b600560009054906101000a900473ffffffffffffffffffffffffffffffffffffffff1673ffffffffffffffffffffffffffffffffffffffff163373ffffffffffffffffffffffffffffffffffffffff1614620006e757600080fd5b8030600360009054906101000a900473ffffffffffffffffffffffffffffffffffffffff166040516200071a9062001f9a565b620007289392919062002613565b604051809103906000f08015801562000745573d6000803e3d6000fd5b5060076000600654815260200190815260200160002060006101000a81548173ffffffffffffffffffffffffffffffffffffffff021916908373ffffffffffffffffffffffffffffffffffffffff16021790555060066000815480929190620007ae90620028dd565b91905055507f9e0023bebcc752baaa41057318405b5a6a8e9c6372b519717cfdf238e5caa795600654604051620007e69190620025c9565b60405180910390a150565b60076020528060005260406000206000915054906101000a900473ffffffffffffffffffffffffffffffffffffffff1681565b600260005414156200086d576040517f08c379a00000000000000000000000000000000000000000000000000000000081526004016200086490620025a7565b60405180910390fd5b60026000819055506000600260009054906101000a900473ffffffffffffffffffffffffffffffffffffffff1673ffffffffffffffffffffffffffffffffffffffff166370a08231306040518263ffffffff1660e01b8152600401620008d491906200234d565b60206040518083038186803b158015620008ed57600080fd5b505afa15801562000902573d6000803e3d6000fd5b505050506040513d601f19601f8201168201806040525081019062000928919062002088565b9050600260009054906101000a900473ffffffffffffffffffffffffffffffffffffffff1673ffffffffffffffffffffffffffffffffffffffff166323b872dd3330856040518463ffffffff1660e01b81526004016200098b9392919062002397565b602060405180830381600087803b158015620009a657600080fd5b505af1158015620009bb573d6000803e3d6000fd5b505050506040513d601f19601f82011682018060405250810190620009e1919062002030565b5062000aa781600260009054906101000a900473ffffffffffffffffffffffffffffffffffffffff1673ffffffffffffffffffffffffffffffffffffffff166370a08231306040518263ffffffff1660e01b815260040162000a4491906200234d565b60206040518083038186803b15801562000a5d57600080fd5b505afa15801562000a72573d6000803e3d6000fd5b505050506040513d601f19601f8201168201806040525081019062000a98919062002088565b62000e8d90919063ffffffff16565b9150600062000ad6606462000ac760048662000ea590919063ffffffff16565b62000ebd90919063ffffffff16565b9050600062000ae58262000ed5565b90506007600086815260200190815260200160002060009054906101000a900473ffffffffffffffffffffffffffffffffffffffff1673ffffffffffffffffffffffffffffffffffffffff166313b1864082336040518363ffffffff1660e01b815260040162000b57929190620025e6565b600060405180830381600087803b15801562000b7257600080fd5b505af115801562000b87573d6000803e3d6000fd5b50505050600062000ba2838662000e8d90919063ffffffff16565b905062000bb0813362000f2f565b5050505060016000819055505050565b6008600082815260200190815260200160002060009054906101000a900460ff1662000c23576040517f08c379a000000000000000000000000000000000000000000000000000000000815260040162000c1a9062002563565b60405180910390fd5b62000c2e3362000fcb565b50565b600260009054906101000a900473ffffffffffffffffffffffffffffffffffffffff1681565b600360009054906101000a900473ffffffffffffffffffffffffffffffffffffffff1673ffffffffffffffffffffffffffffffffffffffff166323b872dd3330846040518463ffffffff1660e01b815260040162000cb89392919062002397565b602060405180830381600087803b15801562000cd357600080fd5b505af115801562000ce8573d6000803e3d6000fd5b505050506040513d601f19601f8201168201806040525081019062000d0e919062002030565b50600062000d3c606462000d2d60048562000ea590919063ffffffff16565b62000ebd90919063ffffffff16565b90506007600084815260200190815260200160002060009054906101000a900473ffffffffffffffffffffffffffffffffffffffff1673ffffffffffffffffffffffffffffffffffffffff166313b1864082336040518363ffffffff1660e01b815260040162000dae929190620025e6565b600060405180830381600087803b15801562000dc957600080fd5b505af115801562000dde573d6000803e3d6000fd5b50505050600062000df9828462000e8d90919063ffffffff16565b905062000e0781336200116b565b50505050565b600160009054906101000a900473ffffffffffffffffffffffffffffffffffffffff1681565b600062000e86600360009054906101000a900473ffffffffffffffffffffffffffffffffffffffff16600260009054906101000a900473ffffffffffffffffffffffffffffffffffffffff168462001207565b9050919050565b6000818362000e9d9190620027f4565b905092915050565b6000818362000eb5919062002793565b905092915050565b6000818362000ecd91906200275b565b905092915050565b600062000f28600260009054906101000a900473ffffffffffffffffffffffffffffffffffffffff16600360009054906101000a900473ffffffffffffffffffffffffffffffffffffffff168462001207565b9050919050565b600062000f4760028462000ebd90919063ffffffff16565b9050600062000f60828562000e8d90919063ffffffff16565b9050600062000fb5600260009054906101000a900473ffffffffffffffffffffffffffffffffffffffff16600360009054906101000a900473ffffffffffffffffffffffffffffffffffffffff168462001207565b905062000fc483828662001610565b5050505050565b6000600460008373ffffffffffffffffffffffffffffffffffffffff1673ffffffffffffffffffffffffffffffffffffffff168152602001908152602001600020905060008062001020836002015462001a96565b91509150600062001077600360009054906101000a900473ffffffffffffffffffffffffffffffffffffffff16600260009054906101000a900473ffffffffffffffffffffffffffffffffffffffff168462001207565b9050600084600101819055506000846000018190555060008460020181905550620010ac838262001df890919063ffffffff16565b9050600260009054906101000a900473ffffffffffffffffffffffffffffffffffffffff1673ffffffffffffffffffffffffffffffffffffffff1663a9059cbb86836040518363ffffffff1660e01b81526004016200110d929190620024df565b602060405180830381600087803b1580156200112857600080fd5b505af11580156200113d573d6000803e3d6000fd5b505050506040513d601f19601f8201168201806040525081019062001163919062002030565b505050505050565b60006200118360028462000ebd90919063ffffffff16565b905060006200119c828562000e8d90919063ffffffff16565b90506000620011f1600360009054906101000a900473ffffffffffffffffffffffffffffffffffffffff16600260009054906101000a900473ffffffffffffffffffffffffffffffffffffffff168462001207565b90506200120081848662001610565b5050505050565b60008373ffffffffffffffffffffffffffffffffffffffff1663095ea7b3600160009054906101000a900473ffffffffffffffffffffffffffffffffffffffff16846040518363ffffffff1660e01b815260040162001268929190620024df565b602060405180830381600087803b1580156200128357600080fd5b505af115801562001298573d6000803e3d6000fd5b505050506040513d601f19601f82011682018060405250810190620012be919062002030565b506000600267ffffffffffffffff81111562001303577f4e487b7100000000000000000000000000000000000000000000000000000000600052604160045260246000fd5b604051908082528060200260200182016040528015620013325781602001602082028036833780820191505090505b509050848160008151811062001371577f4e487b7100000000000000000000000000000000000000000000000000000000600052603260045260246000fd5b602002602001019073ffffffffffffffffffffffffffffffffffffffff16908173ffffffffffffffffffffffffffffffffffffffff16815250508381600181518110620013e7577f4e487b7100000000000000000000000000000000000000000000000000000000600052603260045260246000fd5b602002602001019073ffffffffffffffffffffffffffffffffffffffff16908173ffffffffffffffffffffffffffffffffffffffff168152505060008473ffffffffffffffffffffffffffffffffffffffff166370a08231306040518263ffffffff1660e01b81526004016200145e91906200234d565b60206040518083038186803b1580156200147757600080fd5b505afa1580156200148c573d6000803e3d6000fd5b505050506040513d601f19601f82011682018060405250810190620014b2919062002088565b9050600160009054906101000a900473ffffffffffffffffffffffffffffffffffffffff1673ffffffffffffffffffffffffffffffffffffffff16635c11d7958560008530603c42620015069190620026fe565b6040518663ffffffff1660e01b81526004016200152895949392919062002650565b600060405180830381600087803b1580156200154357600080fd5b505af115801562001558573d6000803e3d6000fd5b5050505060008573ffffffffffffffffffffffffffffffffffffffff166370a08231306040518263ffffffff1660e01b81526004016200159991906200234d565b60206040518083038186803b158015620015b257600080fd5b505afa158015620015c7573d6000803e3d6000fd5b505050506040513d601f19601f82011682018060405250810190620015ed919062002088565b905062001604828262000e8d90919063ffffffff16565b93505050509392505050565b600260009054906101000a900473ffffffffffffffffffffffffffffffffffffffff1673ffffffffffffffffffffffffffffffffffffffff1663095ea7b3600160009054906101000a900473ffffffffffffffffffffffffffffffffffffffff16856040518363ffffffff1660e01b815260040162001691929190620024df565b602060405180830381600087803b158015620016ac57600080fd5b505af1158015620016c1573d6000803e3d6000fd5b505050506040513d601f19601f82011682018060405250810190620016e7919062002030565b50600360009054906101000a900473ffffffffffffffffffffffffffffffffffffffff1673ffffffffffffffffffffffffffffffffffffffff1663095ea7b3600160009054906101000a900473ffffffffffffffffffffffffffffffffffffffff16846040518363ffffffff1660e01b815260040162001769929190620024df565b602060405180830381600087803b1580156200178457600080fd5b505af115801562001799573d6000803e3d6000fd5b505050506040513d601f19601f82011682018060405250810190620017bf919062002030565b506000620017cc62001e10565b73ffffffffffffffffffffffffffffffffffffffff166370a08231306040518263ffffffff1660e01b81526004016200180691906200234d565b60206040518083038186803b1580156200181f57600080fd5b505afa15801562001834573d6000803e3d6000fd5b505050506040513d601f19601f820116820180604052508101906200185a919062002088565b9050600160009054906101000a900473ffffffffffffffffffffffffffffffffffffffff1673ffffffffffffffffffffffffffffffffffffffff1663e8e33700600260009054906101000a900473ffffffffffffffffffffffffffffffffffffffff16600360009054906101000a900473ffffffffffffffffffffffffffffffffffffffff1687876000803061016842620018f69190620026fe565b6040518963ffffffff1660e01b81526004016200191b98979695949392919062002451565b606060405180830381600087803b1580156200193657600080fd5b505af11580156200194b573d6000803e3d6000fd5b505050506040513d601f19601f8201168201806040525081019062001971919062002136565b50505060006200198062001e10565b73ffffffffffffffffffffffffffffffffffffffff166370a08231306040518263ffffffff1660e01b8152600401620019ba91906200234d565b60206040518083038186803b158015620019d357600080fd5b505afa158015620019e8573d6000803e3d6000fd5b505050506040513d601f19601f8201168201806040525081019062001a0e919062002088565b9050600062001a27838362000e8d90919063ffffffff16565b90506000600460008673ffffffffffffffffffffffffffffffffffffffff1673ffffffffffffffffffffffffffffffffffffffff168152602001908152602001600020905062001a8582826002015462001df890919063ffffffff16565b816002018190555050505050505050565b60008062001aa362001e10565b73ffffffffffffffffffffffffffffffffffffffff1663095ea7b3600160009054906101000a900473ffffffffffffffffffffffffffffffffffffffff16856040518363ffffffff1660e01b815260040162001b01929190620024df565b602060405180830381600087803b15801562001b1c57600080fd5b505af115801562001b31573d6000803e3d6000fd5b505050506040513d601f19601f8201168201806040525081019062001b57919062002030565b506000600260009054906101000a900473ffffffffffffffffffffffffffffffffffffffff1673ffffffffffffffffffffffffffffffffffffffff166370a08231306040518263ffffffff1660e01b815260040162001bb791906200234d565b60206040518083038186803b15801562001bd057600080fd5b505afa15801562001be5573d6000803e3d6000fd5b505050506040513d601f19601f8201168201806040525081019062001c0b919062002088565b9050600160009054906101000a900473ffffffffffffffffffffffffffffffffffffffff1673ffffffffffffffffffffffffffffffffffffffff1663baa2abde600260009054906101000a900473ffffffffffffffffffffffffffffffffffffffff16600360009054906101000a900473ffffffffffffffffffffffffffffffffffffffff1687600080306101684262001ca69190620026fe565b6040518863ffffffff1660e01b815260040162001cca9796959493929190620023d4565b6040805180830381600087803b15801562001ce457600080fd5b505af115801562001cf9573d6000803e3d6000fd5b505050506040513d601f19601f8201168201806040525081019062001d1f9190620020f5565b9050809250506000600260009054906101000a900473ffffffffffffffffffffffffffffffffffffffff1673ffffffffffffffffffffffffffffffffffffffff166370a08231306040518263ffffffff1660e01b815260040162001d8491906200234d565b60206040518083038186803b15801562001d9d57600080fd5b505afa15801562001db2573d6000803e3d6000fd5b505050506040513d601f19601f8201168201806040525081019062001dd8919062002088565b905062001def828262000e8d90919063ffffffff16565b93505050915091565b6000818362001e089190620026fe565b905092915050565b600080600160009054906101000a900473ffffffffffffffffffffffffffffffffffffffff1673ffffffffffffffffffffffffffffffffffffffff1663c45a01556040518163ffffffff1660e01b815260040160206040518083038186803b15801562001e7c57600080fd5b505afa15801562001e91573d6000803e3d6000fd5b505050506040513d601f19601f8201168201806040525081019062001eb7919062002004565b905060008173ffffffffffffffffffffffffffffffffffffffff1663e6a43905600260009054906101000a900473ffffffffffffffffffffffffffffffffffffffff16600360009054906101000a900473ffffffffffffffffffffffffffffffffffffffff166040518363ffffffff1660e01b815260040162001f3c9291906200236a565b60206040518083038186803b15801562001f5557600080fd5b505afa15801562001f6a573d6000803e3d6000fd5b505050506040513d601f19601f8201168201806040525081019062001f90919062002004565b9050809250505090565b610ba980620029d883390190565b60008151905062001fb98162002989565b92915050565b60008151905062001fd081620029a3565b92915050565b60008135905062001fe781620029bd565b92915050565b60008151905062001ffe81620029bd565b92915050565b6000602082840312156200201757600080fd5b6000620020278482850162001fa8565b91505092915050565b6000602082840312156200204357600080fd5b6000620020538482850162001fbf565b91505092915050565b6000602082840312156200206f57600080fd5b60006200207f8482850162001fd6565b91505092915050565b6000602082840312156200209b57600080fd5b6000620020ab8482850162001fed565b91505092915050565b60008060408385031215620020c857600080fd5b6000620020d88582860162001fd6565b9250506020620020eb8582860162001fd6565b9150509250929050565b600080604083850312156200210957600080fd5b6000620021198582860162001fed565b92505060206200212c8582860162001fed565b9150509250929050565b6000806000606084860312156200214c57600080fd5b60006200215c8682870162001fed565b93505060206200216f8682870162001fed565b9250506040620021828682870162001fed565b9150509250925092565b60006200219a8383620021a6565b60208301905092915050565b620021b1816200282f565b82525050565b620021c2816200282f565b82525050565b6000620021d582620026c4565b620021e18185620026dc565b9350620021ee83620026b4565b8060005b83811015620022255781516200220988826200218c565b97506200221683620026cf565b925050600181019050620021f2565b5085935050505092915050565b6200223d8162002843565b82525050565b6200224e8162002879565b82525050565b6200225f81620028a1565b82525050565b6200227081620028c9565b82525050565b600062002285601383620026ed565b91507f57696e6e6572206e6f74206465636c61726564000000000000000000000000006000830152602082019050919050565b6000620022c7601783620026ed565b91507f57696e6e657220616c7265616479206465636c617265640000000000000000006000830152602082019050919050565b600062002309601f83620026ed565b91507f5265656e7472616e637947756172643a207265656e7472616e742063616c6c006000830152602082019050919050565b62002347816200286f565b82525050565b6000602082019050620023646000830184620021b7565b92915050565b6000604082019050620023816000830185620021b7565b620023906020830184620021b7565b9392505050565b6000606082019050620023ae6000830186620021b7565b620023bd6020830185620021b7565b620023cc60408301846200233c565b949350505050565b600060e082019050620023eb600083018a620021b7565b620023fa6020830189620021b7565b6200240960408301886200233c565b62002418606083018762002265565b62002427608083018662002265565b6200243660a0830185620021b7565b6200244560c08301846200233c565b98975050505050505050565b60006101008201905062002469600083018b620021b7565b62002478602083018a620021b7565b6200248760408301896200233c565b6200249660608301886200233c565b620024a5608083018762002265565b620024b460a083018662002265565b620024c360c0830185620021b7565b620024d260e08301846200233c565b9998505050505050505050565b6000604082019050620024f66000830185620021b7565b6200250560208301846200233c565b9392505050565b600060208201905062002523600083018462002232565b92915050565b600060208201905062002540600083018462002243565b92915050565b60006020820190506200255d600083018462002254565b92915050565b600060208201905081810360008301526200257e8162002276565b9050919050565b60006020820190508181036000830152620025a081620022b8565b9050919050565b60006020820190508181036000830152620025c281620022fa565b9050919050565b6000602082019050620025e060008301846200233c565b92915050565b6000604082019050620025fd60008301856200233c565b6200260c6020830184620021b7565b9392505050565b60006060820190506200262a60008301866200233c565b620026396020830185620021b7565b620026486040830184620021b7565b949350505050565b600060a0820190506200266760008301886200233c565b62002676602083018762002265565b81810360408301526200268a8186620021c8565b90506200269b6060830185620021b7565b620026aa60808301846200233c565b9695505050505050565b6000819050602082019050919050565b600081519050919050565b6000602082019050919050565b600082825260208201905092915050565b600082825260208201905092915050565b60006200270b826200286f565b915062002718836200286f565b9250827fffffffffffffffffffffffffffffffffffffffffffffffffffffffffffffffff0382111562002750576200274f6200292b565b5b828201905092915050565b600062002768826200286f565b915062002775836200286f565b9250826200278857620027876200295a565b5b828204905092915050565b6000620027a0826200286f565b9150620027ad836200286f565b9250817fffffffffffffffffffffffffffffffffffffffffffffffffffffffffffffffff0483118215151615620027e957620027e86200292b565b5b828202905092915050565b600062002801826200286f565b91506200280e836200286f565b9250828210156200282457620028236200292b565b5b828203905092915050565b60006200283c826200284f565b9050919050565b60008115159050919050565b600073ffffffffffffffffffffffffffffffffffffffff82169050919050565b6000819050919050565b600062002886826200288d565b9050919050565b60006200289a826200284f565b9050919050565b6000620028ae82620028b5565b9050919050565b6000620028c2826200284f565b9050919050565b6000620028d6826200286f565b9050919050565b6000620028ea826200286f565b91507fffffffffffffffffffffffffffffffffffffffffffffffffffffffffffffffff82141562002920576200291f6200292b565b5b600182019050919050565b7f4e487b7100000000000000000000000000000000000000000000000000000000600052601160045260246000fd5b7f4e487b7100000000000000000000000000000000000000000000000000000000600052601260045260246000fd5b62002994816200282f565b8114620029a057600080fd5b50565b620029ae8162002843565b8114620029ba57600080fd5b50565b620029c8816200286f565b8114620029d457600080fd5b5056fe60806040523480156200001157600080fd5b5060405162000ba938038062000ba9833981810160405281019062000037919062000152565b8260008190555062000060670de0b6b3a7640000846200010c60201b620003f31790919060201c565b60028190555081600160006101000a81548173ffffffffffffffffffffffffffffffffffffffff021916908373ffffffffffffffffffffffffffffffffffffffff1602179055506001600460006101000a81548160ff02191690831515021790555080600460016101000a81548173ffffffffffffffffffffffffffffffffffffffff021916908373ffffffffffffffffffffffffffffffffffffffff16021790555050505062000281565b600081836200011c9190620001a8565b905092915050565b60008151905062000135816200024d565b92915050565b6000815190506200014c8162000267565b92915050565b6000806000606084860312156200016857600080fd5b600062000178868287016200013b565b93505060206200018b8682870162000124565b92505060406200019e8682870162000124565b9150509250925092565b6000620001b58262000214565b9150620001c28362000214565b925082620001d557620001d46200021e565b5b828204905092915050565b6000620001ed82620001f4565b9050919050565b600073ffffffffffffffffffffffffffffffffffffffff82169050919050565b6000819050919050565b7f4e487b7100000000000000000000000000000000000000000000000000000000600052601260045260246000fd5b6200025881620001e0565b81146200026457600080fd5b50565b620002728162000214565b81146200027e57600080fd5b50565b61091880620002916000396000f3fe608060405234801561001057600080fd5b506004361061004c5760003560e01c806313b186401461005157806314034bd21461006d5780638e7ea5b21461008b578063b8760e6b146100a9575b600080fd5b61006b60048036038101906100669190610496565b6100c7565b005b6100756102a2565b604051610082919061066a565b60405180910390f35b610093610375565b6040516100a0919061066a565b60405180910390f35b6100b16103ea565b6040516100be9190610705565b60405180910390f35b6000600254141561010d576040517f08c379a000000000000000000000000000000000000000000000000000000000815260040161010490610685565b60405180910390fd5b600460009054906101000a900460ff1661015c576040517f08c379a0000000000000000000000000000000000000000000000000000000008152600401610153906106a5565b60405180910390fd5b6000610179670de0b6b3a7640000846103f390919063ffffffff16565b90508060025410156101c0576040517f08c379a00000000000000000000000000000000000000000000000000000000081526004016101b7906106c5565b60405180910390fd5b60005b8181101561024a578260056000600354815260200190815260200160002060006101000a81548173ffffffffffffffffffffffffffffffffffffffff021916908373ffffffffffffffffffffffffffffffffffffffff16021790555060036000815480929190610232906107d2565b91905055508080610242906107d2565b9150506101c3565b506102608160025461040990919063ffffffff16565b6002819055507f609ccaad0d5a048d24b2ea393937b393e3ad528ec64eca22004023379ea26f4282604051610295919061066a565b60405180910390a1505050565b6000600160009054906101000a900473ffffffffffffffffffffffffffffffffffffffff1673ffffffffffffffffffffffffffffffffffffffff163373ffffffffffffffffffffffffffffffffffffffff16146102fe57600080fd5b600460009054906101000a900460ff1661034d576040517f08c379a0000000000000000000000000000000000000000000000000000000008152600401610344906106e5565b60405180910390fd5b6000600460006101000a81548160ff021916908315150217905550610370610375565b905090565b6000806103ae610398670de0b6b3a76400006000546103f390919063ffffffff16565b6103a061041f565b61045690919063ffffffff16565b90506005600082815260200190815260200160002060009054906101000a900473ffffffffffffffffffffffffffffffffffffffff1691505090565b60008054905090565b600081836104019190610731565b905092915050565b600081836104179190610762565b905092915050565b600044426000546040516020016104389392919061062d565b6040516020818303038152906040528051906020012060001c905090565b600081836104649190610825565b905092915050565b60008135905061047b816108b4565b92915050565b600081359050610490816108cb565b92915050565b600080604083850312156104a957600080fd5b60006104b785828601610481565b92505060206104c88582860161046c565b9150509250929050565b6104db81610796565b82525050565b60006104ee600f83610720565b91507f636f6e746578742069732066756c6c00000000000000000000000000000000006000830152602082019050919050565b600061052e601d83610720565b91507f636f6e74657874206973206e6f742061637469766520616e796d6f72650000006000830152602082019050919050565b600061056e603283610720565b91507f656e74726565206665652073686f756c6420626520736d616c6c65722074686160008301527f6e20656e747269657320726571756972656400000000000000000000000000006020830152604082019050919050565b60006105d4601d83610720565b91507f436f6e74657874206973206e6f742061637469766520616e796d6f72650000006000830152602082019050919050565b610610816107c8565b82525050565b610627610622826107c8565b61081b565b82525050565b60006106398286610616565b6020820191506106498285610616565b6020820191506106598284610616565b602082019150819050949350505050565b600060208201905061067f60008301846104d2565b92915050565b6000602082019050818103600083015261069e816104e1565b9050919050565b600060208201905081810360008301526106be81610521565b9050919050565b600060208201905081810360008301526106de81610561565b9050919050565b600060208201905081810360008301526106fe816105c7565b9050919050565b600060208201905061071a6000830184610607565b92915050565b600082825260208201905092915050565b600061073c826107c8565b9150610747836107c8565b92508261075757610756610885565b5b828204905092915050565b600061076d826107c8565b9150610778836107c8565b92508282101561078b5761078a610856565b5b828203905092915050565b60006107a1826107a8565b9050919050565b600073ffffffffffffffffffffffffffffffffffffffff82169050919050565b6000819050919050565b60006107dd826107c8565b91507fffffffffffffffffffffffffffffffffffffffffffffffffffffffffffffffff8214156108105761080f610856565b5b600182019050919050565b6000819050919050565b6000610830826107c8565b915061083b836107c8565b92508261084b5761084a610885565b5b828206905092915050565b7f4e487b7100000000000000000000000000000000000000000000000000000000600052601160045260246000fd5b7f4e487b7100000000000000000000000000000000000000000000000000000000600052601260045260246000fd5b6108bd81610796565b81146108c857600080fd5b50565b6108d4816107c8565b81146108df57600080fd5b5056fea2646970667358221220781749b566aacfbe91418f67df1cbc09a9a9dbd6e05c8b66f2e6264ba54e82cb64736f6c63430008000033a2646970667358221220b687fa79514616dad5115ffb4881a61143084d93963af9fdc71a1f9df3396f8c64736f6c63430008000033",
  "immutableReferences": {},
  "source": "// SPDX-License-Identifier: MIT\r\npragma solidity ^0.8.0;\r\n\r\nimport \"./PancakeClass.sol\";\r\nimport \"./Lottery.sol\";\r\n\r\ncontract LpLottery is PancakeClass {\r\n    address private admin;\r\n    uint256 private lotteryId;\r\n    mapping(uint256 => Lottery) public lotteryStructs;\r\n    mapping(uint256 => bool) public lotteryWinnerDeclared;\r\n    using SafeMath for uint256;\r\n\r\n    constructor(\r\n        address _routerAddres,\r\n        address _tokenSafeMars,\r\n        address _tokenBUSD\r\n    ) PancakeClass(_routerAddres, _tokenSafeMars, _tokenBUSD) {\r\n        admin = msg.sender;\r\n    }\r\n    function createContext(uint256 _prizeValue) public restricted {\r\n       lotteryStructs[lotteryId] = new Lottery(_prizeValue, address(this), tokenBUSD);\r\n       lotteryId++;\r\n       emit LotteryCreated(lotteryId);\r\n    }\r\n\r\n    function declareWinner(uint256 _lotteryId) public restricted {\r\n        require(!lotteryWinnerDeclared[_lotteryId], \"Winner already declared\");\r\n        lotteryWinnerDeclared[_lotteryId] = true;\r\n        address winner = lotteryStructs[_lotteryId].declareWinner();\r\n        uint256 tokensGetInSafemars = convertBUSDToSafeMars(lotteryStructs[_lotteryId].getPrizeValue());\r\n        IERC20(tokenSafeMars).transfer(winner, tokensGetInSafemars);\r\n    }\r\n\r\n    function viewWinner(uint256 _lotteryId) public view returns(address) {\r\n        return lotteryStructs[_lotteryId].getWinner();\r\n    }\r\n\r\n    function participateInBusd(uint256 _lotteryId, uint256 amount) public {\r\n        IERC20(tokenBUSD).transferFrom(msg.sender, address(this), amount);\r\n\r\n        uint256 entryFee = amount.mul(4).div(100);\r\n        lotteryStructs[_lotteryId].participate(entryFee, msg.sender);\r\n        uint256 stakingAmount = amount.sub(entryFee);\r\n        stakeInBUSD(stakingAmount, msg.sender);\r\n    }\r\n\r\n    function participateInSafemars(uint256 _lotteryId, uint256 amount) public nonReentrant {\r\n        uint256 initBalance = IERC20(tokenSafeMars).balanceOf(address(this));\r\n        IERC20(tokenSafeMars).transferFrom(msg.sender, address(this), amount);\r\n        amount = IERC20(tokenSafeMars).balanceOf(address(this)).sub(initBalance);\r\n        \r\n        uint256 entryFee = amount.mul(4).div(100);\r\n        uint256 tokensGetInBusd = convertSafeMarsToBUSD(entryFee);\r\n        lotteryStructs[_lotteryId].participate(tokensGetInBusd, msg.sender);\r\n\r\n        uint256 stakingAmount = amount.sub(entryFee);\r\n        stakeInSafeMars(stakingAmount, msg.sender);\r\n    }\r\n\r\n    function exit(uint256 _lotteryId) public {\r\n        require(lotteryWinnerDeclared[_lotteryId], \"Winner not declared\");\r\n        unstakeAllToSafeMars(msg.sender);\r\n    }\r\n\r\n    modifier restricted() {\r\n        require(msg.sender == admin);\r\n        _;\r\n    }\r\n\r\n    event LotteryCreated(\r\n        uint256 lotteryId\r\n    );\r\n}\r\n",
  "sourcePath": "C:/Users/sudip/Desktop/RealProjects/LPLottery/contracts/LpLottery.sol",
  "compiler": {
    "name": "solc",
    "version": "0.8.0+commit.c7dfd78e.Emscripten.clang"
  },
  "schemaVersion": "3.3.4",
  "updatedAt": "2021-07-11T16:21:19.543Z",
  "devdoc": {
    "kind": "dev",
    "methods": {},
    "version": 1
  },
  "userdoc": {
    "kind": "user",
    "methods": {},
    "version": 1
  }
}