{
  "contractName": "PancakeClass",
  "abi": [
    {
      "inputs": [
        {
          "internalType": "address",
          "name": "_routerAddres",
          "type": "address"
        },
        {
          "internalType": "address",
          "name": "_tokenSafeMars",
          "type": "address"
        },
        {
          "internalType": "address",
          "name": "_tokenBUSD",
          "type": "address"
        }
      ],
      "stateMutability": "nonpayable",
      "type": "constructor"
    },
    {
      "inputs": [],
      "name": "router",
      "outputs": [
        {
          "internalType": "contract IPancakeRouter02",
          "name": "",
          "type": "address"
        }
      ],
      "stateMutability": "view",
      "type": "function"
    },
    {
      "inputs": [],
      "name": "tokenBUSD",
      "outputs": [
        {
          "internalType": "address",
          "name": "",
          "type": "address"
        }
      ],
      "stateMutability": "view",
      "type": "function"
    },
    {
      "inputs": [],
      "name": "tokenSafeMars",
      "outputs": [
        {
          "internalType": "address",
          "name": "",
          "type": "address"
        }
      ],
      "stateMutability": "view",
      "type": "function"
    }
  ],
  "bytecode": "0x608060405234801561001057600080fd5b506040516103b33803806103b38339818101604052810190610032919061011a565b600160008190555082600160006101000a81548173ffffffffffffffffffffffffffffffffffffffff021916908373ffffffffffffffffffffffffffffffffffffffff16021790555081600260006101000a81548173ffffffffffffffffffffffffffffffffffffffff021916908373ffffffffffffffffffffffffffffffffffffffff16021790555080600360006101000a81548173ffffffffffffffffffffffffffffffffffffffff021916908373ffffffffffffffffffffffffffffffffffffffff1602179055505050506101b2565b6000815190506101148161019b565b92915050565b60008060006060848603121561012f57600080fd5b600061013d86828701610105565b935050602061014e86828701610105565b925050604061015f86828701610105565b9150509250925092565b60006101748261017b565b9050919050565b600073ffffffffffffffffffffffffffffffffffffffff82169050919050565b6101a481610169565b81146101af57600080fd5b50565b6101f2806101c16000396000f3fe608060405234801561001057600080fd5b50600436106100415760003560e01c8063213ef7f714610046578063bcbf42f714610064578063f887ea4014610082575b600080fd5b61004e6100a0565b60405161005b9190610130565b60405180910390f35b61006c6100c6565b6040516100799190610130565b60405180910390f35b61008a6100ec565b604051610097919061014b565b60405180910390f35b600360009054906101000a900473ffffffffffffffffffffffffffffffffffffffff1681565b600260009054906101000a900473ffffffffffffffffffffffffffffffffffffffff1681565b600160009054906101000a900473ffffffffffffffffffffffffffffffffffffffff1681565b61011b81610166565b82525050565b61012a81610198565b82525050565b60006020820190506101456000830184610112565b92915050565b60006020820190506101606000830184610121565b92915050565b600061017182610178565b9050919050565b600073ffffffffffffffffffffffffffffffffffffffff82169050919050565b60006101a3826101aa565b9050919050565b60006101b582610178565b905091905056fea26469706673582212207a0ef2a1635671f857ba0d7248d8afcaf4e9081eb3fb96157ab62d2b7a80d79764736f6c63430008000033",
  "immutableReferences": {},
  "source": "// SPDX-License-Identifier: MIT\r\npragma solidity ^0.8.0;\r\n\r\nimport \"@openzeppelin/contracts/utils/math/SafeMath.sol\";\r\nimport \"@openzeppelin/contracts/token/ERC20/IERC20.sol\";\r\nimport \"@openzeppelin/contracts/security/ReentrancyGuard.sol\";\r\n\r\nimport \"./PancakeInterfaces/IPancakeRouter02.sol\";\r\nimport \"./PancakeInterfaces/IPancakeFactory.sol\";\r\nimport \"./PancakeInterfaces/IPancakePair.sol\";\r\n\r\ncontract PancakeClass is ReentrancyGuard {\r\n    using SafeMath for uint256;\r\n\r\n    IPancakeRouter02 public router;\r\n    address public tokenSafeMars;\r\n    address public tokenBUSD;\r\n\r\n    struct UserBalance {\r\n        uint256 balanceSafeMars;\r\n        uint256 balanceBUSD;\r\n        uint256 balanceLP;\r\n    } mapping(address => UserBalance) internal allUserBalance;\r\n\r\n    constructor(\r\n        address _routerAddres,\r\n        address _tokenSafeMars,\r\n        address _tokenBUSD\r\n    ) {\r\n        router = IPancakeRouter02(_routerAddres);\r\n        tokenSafeMars = _tokenSafeMars;\r\n        tokenBUSD = _tokenBUSD;\r\n    }\r\n\r\n    function stakeInSafeMars(uint256 amount, address account) internal {\r\n        uint256 oneHalf = amount.div(2);\r\n        uint256 anoterHalf = amount.sub(oneHalf);\r\n        uint256 tokensGet = _sellXGetY(tokenSafeMars, tokenBUSD, anoterHalf);\r\n\r\n        _addLiquidity(oneHalf, tokensGet, account);\r\n    }\r\n\r\n    function stakeInBUSD(uint256 amount, address account) internal {\r\n        uint256 oneHalf = amount.div(2);\r\n        uint256 anoterHalf = amount.sub(oneHalf);\r\n        uint256 tokensGet = _sellXGetY(tokenBUSD, tokenSafeMars, anoterHalf);\r\n\r\n        _addLiquidity(tokensGet, oneHalf, account);\r\n    }\r\n\r\n    function unstakeAllToSafeMars(address account) internal {\r\n        UserBalance storage usrBal = allUserBalance[account];\r\n        (uint256 _amountSafeMars, uint256 _amountBUSD) = _removeLiquidity(usrBal.balanceLP);\r\n        uint256 out = _sellXGetY(tokenBUSD, tokenSafeMars, _amountBUSD);\r\n        usrBal.balanceBUSD = 0;\r\n        usrBal.balanceSafeMars = 0;\r\n        usrBal.balanceLP = 0;\r\n        out = out.add(_amountSafeMars);\r\n        IERC20(tokenSafeMars).transfer(account, out);\r\n    }\r\n\r\n    function convertBUSDToSafeMars(uint256 _amountIn) internal returns(uint256 amountOut) {\r\n        return _sellXGetY(tokenBUSD, tokenSafeMars, _amountIn);\r\n    }\r\n\r\n    function convertSafeMarsToBUSD(uint256 _amountIn) internal returns(uint256 amountOut) {\r\n        return _sellXGetY(tokenSafeMars, tokenBUSD, _amountIn);\r\n    }\r\n\r\n    function _addLiquidity(uint256 _amountSafeMars, uint256 _amountBUSD, address account) private {\r\n        IERC20(tokenSafeMars).approve(address(router), _amountSafeMars);\r\n        IERC20(tokenBUSD).approve(address(router), _amountBUSD);\r\n\r\n        uint256 bal = IERC20(_getPairAddress()).balanceOf(address(this));\r\n        router.addLiquidity(\r\n            tokenSafeMars, \r\n            tokenBUSD, \r\n            _amountSafeMars, \r\n            _amountBUSD, \r\n            0, \r\n            0, \r\n            address(this), \r\n            block.timestamp + 360\r\n        );\r\n        uint256 bal2 = IERC20(_getPairAddress()).balanceOf(address(this));\r\n        uint256 _liquidity = bal2.sub(bal);\r\n\r\n        UserBalance storage usrBal = allUserBalance[account];\r\n        usrBal.balanceLP = (usrBal.balanceLP).add(_liquidity);\r\n    }\r\n\r\n    function _removeLiquidity(uint256 _liquidity) private returns(uint256 _amountSafeMars, uint256 _amountBUSD) {\r\n        IERC20(_getPairAddress()).approve(address(router), _liquidity);\r\n        uint256 balY = IERC20(tokenSafeMars).balanceOf(address(this));\r\n        (, _amountBUSD) = router.removeLiquidity(\r\n            tokenSafeMars, \r\n            tokenBUSD, \r\n            _liquidity, \r\n            0, \r\n            0, \r\n            address(this), \r\n            block.timestamp + 360\r\n        );\r\n        uint256 balY2 = IERC20(tokenSafeMars).balanceOf(address(this));\r\n        _amountSafeMars = balY2.sub(balY);\r\n    }\r\n\r\n    function _sellXGetY(address _tokenXAddress, address _tokenYAddress, uint256 _amountXIn) private returns(uint256 _amountYOut) {\r\n        IERC20(_tokenXAddress).approve(address(router), _amountXIn);\r\n\r\n        address[] memory path = new address[](2);\r\n        path[0] = _tokenXAddress;\r\n        path[1] = _tokenYAddress;\r\n\r\n        uint256 balY = IERC20(_tokenYAddress).balanceOf(address(this));\r\n        router.swapExactTokensForTokensSupportingFeeOnTransferTokens(\r\n            _amountXIn,\r\n            0,\r\n            path,\r\n            address(this),\r\n            block.timestamp + 60\r\n        );\r\n        uint256 balY2 = IERC20(_tokenYAddress).balanceOf(address(this));\r\n        _amountYOut = balY2.sub(balY);\r\n    }\r\n\r\n    function _getPairAddress() private view returns(address) {\r\n        IPancakeFactory factory = IPancakeFactory(router.factory());\r\n        IPancakePair pair = IPancakePair(factory.getPair(tokenSafeMars, tokenBUSD));\r\n        return address(pair);\r\n    }\r\n\r\n    function _isSafeMarsTokenA() private view returns(bool) {\r\n        return (tokenSafeMars < tokenBUSD) ? true : false;\r\n    }\r\n\r\n}",
  "sourcePath": "C:\\Users\\sudip\\Desktop\\RealProjects\\LPLottery\\contracts\\PancakeClass.sol",
  "compiler": {
    "name": "solc",
    "version": "0.8.0+commit.c7dfd78e.Emscripten.clang"
  },
  "schemaVersion": "3.3.4",
  "updatedAt": "2021-07-11T15:51:38.863Z",
  "devdoc": {
    "kind": "dev",
    "methods": {},
    "version": 1
  },
  "userdoc": {
    "kind": "user",
    "methods": {},
    "version": 1
  }
}